:100000000C948F000C94B7000C94B7000C94EE0382
:100010000C94EE030C94EE030C94B7000C94B70010
:100020000C94B7000C94B7000C94B7000C94B70074
:100030000C94B7000C94B7000C94B7000C94B70064
:100040000C943C130C94B7000C9418140C944A14A0
:100050000C94B7000C94B7000C94B7000C94B70044
:100060000C94B7000C94B700B009BD09C109C709C9
:10007000CD09E209EB09F209F709FD09FD09FD09BE
:10008000FD09FD09FD09FD09FD09FD09FD09FD0940
:10009000FD09FD09FD09FD09FD09FD09FD09FD0930
:1000A000FD09FD09FD09FD09B009B609BD09C10930
:1000B000C709CD09D309D709DC09000000080002EF
:1000C000010000030407000000000000000001021E
:1000D00004081020408001020408102001020408D6
:1000E00010200404040404040404020202020202B4
:1000F000030303030303000000002300260029007C
:1001000000000000250028002B0000000000240053
:1001100027002A00DE01C10A9E127A14E901112487
:100120001FBECFEFD8E0DEBFCDBF11E0A0E0B1E051
:10013000E2E9FDE302C005900D92A23EB107D9F7B6
:1001400025E0A2EEB1E001C01D92AB3FB207E1F79E
:1001500011E0CCE1D1E004C02297FE010E94AB1B6C
:10016000C431D107C9F70E94BE140C94BC1E0C9474
:1001700000000C945F1E0C94671ECF92DF92EF92EA
:10018000FF92CF93DF93EC016A017B01642F0E9401
:10019000BB009927F7FC9A958F2D7E2D6D2DCE01F2
:1001A00001960E94BB00B701992777FD9095892F92
:1001B000CE0102960E94BB006F2D772788279927D2
:1001C000CE010396DF91CF91FF90EF90DF90CF901B
:1001D0000C94BB00CF92DF92EF92FF920F931F938C
:1001E000CF936B017C01CB010E94B900182FC6018F
:1001F00001960E94B900C82FC60102960E94B9005C
:10020000082FC60103960E94B900C82E8C2F90E0DB
:10021000A0E0B0E06627782F892F9A2F610F711D1B
:10022000811D911D10E020E030E09801112700278A
:10023000600F711F821F931FD12CE12CF12CFC2C1D
:10024000EE24DD24CC246C0D7D1D8E1D9F1DCF91D1
:100250001F910F91FF90EF90DF90CF900895CF9373
:10026000DF9300D000D000D0CDB7DEB726E040E06D
:1002700052EC61E070E08AE595E00E94C21840E827
:1002800055E260E070E089EE91E00E94F10464E1E3
:1002900070E080E090E00E94B5136AE071E08AE5CA
:1002A00095E00E94EA1560E084E00E94CD1260E0D3
:1002B00085E00E94CD1260E086E00E94CD1260E0F1
:1002C00083E00E94CD1261E083E10E94CD1261E0E3
:1002D00081E10E94CD1261E08FE00E94CD1261E0C9
:1002E0008EE00E94CD1261E083E10E94061361E07E
:1002F00081E10E94061361E08FE00E94061361E035
:100300008EE00E94061364EF71E080E090E00E94AE
:10031000B51360E083E10E94061360E081E10E9472
:10032000061360E08FE00E94061360E08EE00E94FA
:10033000061365E171E08AE595E00E94EA156CE03C
:1003400070E080E090E00E94EA006F5F7F4F709362
:10035000E4016093E30160E371E08AE595E00E94C7
:10036000CB156091E3017091E4014AE0CE01019662
:100370000E945315BE016F5F7F4F8AE595E00E9492
:10038000D815CE0101960E94CD1469E371E08AE58B
:1003900095E00E94EA154091E3015091E40160E08C
:1003A00070E08CE090E00E94BD0026960FB6F894B5
:1003B000DEBF0FBECDBFDF91CF91089588E092E000
:1003C0000E947F0520E044E063E089EE91E00C9418
:1003D000C10489EE91E00C946804CF92DF92EF9211
:1003E000FF92CF93C090E501D090E601E090E70145
:1003F000F090E80184EFC80E81E0D81EE11CF11CEA
:100400000E948613C616D706E806F90688F40E94ED
:1004100086136093E5017093E6018093E701909362
:10042000E8016091E20181E10E9406131092E2016D
:1004300068EE73E080E090E00E94B513C1E089EEC1
:1004400091E00E948803892B09F4CFC089EE91E0E6
:100450000E94FB02682F88E092E00E94390A8823FC
:1004600071F3C093E20164E571E08AE595E00E94D2
:10047000EA156EE571E08AE595E00E94CB1588E00B
:1004800092E00E942707AB01BC0126E030E08AE53C
:1004900095E00E94CD1763E671E08AE595E00E9441
:1004A000CB1588E092E00E945307AB01BC0126E027
:1004B00030E08AE595E00E94CD1769E671E08AE5B3
:1004C00095E00E94CB1510926302609168027091D2
:1004D000690280916A0290916B020E94291A20E0C1
:1004E00030E048EC52E40E948E19AB01BC0122E0DE
:1004F00030E08AE595E00E94CD176EE671E08AE56E
:1005000095E00E94CB1510927102409176025091B5
:10051000770260917802709179022AE030E08AE5F2
:1005200095E00E94D01664E771E08AE595E00E94AC
:10053000CB158AE292E00E94F6074AE050E0682F6D
:100540008AE595E00E94AC166EE28AE595E00E948D
:10055000CD158AE292E00E94D7074AE050E0682F6A
:100560008AE595E00E94AC166EE28AE595E00E946D
:10057000CD158AE292E00E94C7074AE050E0BC0134
:100580008AE595E00E94CA1660E28AE595E00E943D
:10059000CD1588E392E00E9404084AE050E0682FFD
:1005A0008AE595E00E94AC166AE38AE595E00E9430
:1005B000CD1588E392E00E9412084AE050E0682FCF
:1005C0008AE595E00E94AC166AE38AE595E00E9410
:1005D000CD1588E392E00E9428084AE050E0682F99
:1005E0008AE595E00E94B3162ACFCF91FF90EF9055
:1005F000DF90CF9008952091F7023091F8022817EC
:100600003907B9F49091B5028091B602981789F034
:10061000E091B502F0E0E954FD4F80812091B502F0
:1006200030E02F5F3F4F2F7333272093B50290E0C8
:1006300008958FEF9FEF08951F93CF93DF93DC0111
:100640005C968D919C915D97009749F481E090E0D4
:1006500013969C938E93129780E090E03BC0519646
:10066000ED91FC91529750962C915097322F3095E6
:100670001FB75E964C915E9741FB772770F941FD5D
:100680006095F8944081772311F0422B01C04323F9
:100690004083EC012197F1F748E0508160FF02C0F0
:1006A000522B01C053235083EC012197F1F766953B
:1006B000415099F78081772311F0832301C0822B69
:1006C00080831FBF5C968D919C915D970197F1F798
:1006D00081E090E0DF91CF911F9108952091F70282
:1006E0003091F8022817390781F49091B502809172
:1006F000B602981751F0E091B502F0E0E954FD4FD1
:100700008081992787FD909508958FEF9FEF089539
:100710002091F7023091F8022817390771F480917F
:10072000B6022091B50290E0805C9F4F821B910938
:1007300060E470E00E94541B089580E090E008950A
:100740002091F7023091F8022817390739F48FB752
:10075000F8941092B6021092B5028FBF0895E091FE
:10076000F702F091F802E817F90769F4A389B48950
:100770009C918589809589238C931092F802109220
:10078000F70281E0089580E00895CF93DF93EC01B4
:100790008A8D9B8D892BF1F08091F7029091F80260
:1007A0008C179D07B9F0009711F00E94AF038E8D52
:1007B0008E7F8E8F1092B6021092B502D093F802FF
:1007C000C093F702EB89FC8980819D89892B808306
:1007D00081E001C080E0DF91CF9108951F920F92D8
:1007E0000FB60F9211242F933F934F935F936F9304
:1007F0007F938F939F93AF93BF93EF93FF93E0917A
:10080000F702F091F802309709F451C0868DA68561
:10081000B785958581FF04C08C91892329F447C051
:100820008C91892309F043C0A389B4899C9185895F
:10083000809589238C93868997890197F1F7208D7C
:10084000318DA685B785758558E040E0C9010197CF
:10085000F1F7842F90E095958795482F6C91672349
:1008600009F04068515091F7868D81FD4095809147
:10087000B60290E001968F7399272091B502281750
:1008800049F0A091B602B0E0A954BD4F4C938093BB
:10089000B60203C0868D8160868F828D938D01970D
:1008A000F1F7A389B4898C919589892B8C93FF9159
:1008B000EF91BF91AF919F918F917F916F915F91D8
:1008C0004F913F912F910F900FBE0F901F90189551
:1008D0002FE731E0FC01318320830C94AF031F9399
:1008E000CF93DF93EC01162F6E8D6695617081E0DA
:1008F0006827812F0E94061361E0812F0E94CD128C
:10090000812F90E0FC01E253FF4FE491E88BFC0162
:10091000EE51FF4FE491F0E0EE0FFF1FE050FF4F6C
:10092000859194919A8B898BDF91CF911F91089536
:100930001F93CF93DF93EC01162F60E0812F0E946D
:10094000CD128E8D81FD04C061E0812F0E940613BF
:100950001C87812F90E0FC01E253FF4FE491ED876B
:10096000FC01EE51FF4FE491F0E0EE0FFF1FEA5063
:10097000FF4F859194919F878E87DF91CF911F9133
:100980000895FF920F931F93CF93DF93EC01F62E00
:10099000522F1B821A8208EE13E020E030E00C8315
:1009A0001D832E833F838FE791E0998388831F8A7D
:1009B0001E8A198E188E1B8E1A8E1D8E1C8E8E8D81
:1009C0008E7F50FB81F98E8F642FCE010E946F04C1
:1009D0006F2DCE01DF91CF911F910F91FF900C945D
:1009E0009804CF93DF93EC019A01AB011B8E1A8E12
:1009F000198E188E1F8A1E8A60E079E08DE390E0E0
:100A00000E948A1BC9012430310520F0B9016350CE
:100A1000710902C061E070E07D8F6C8FEC85E6317A
:100A200008F068C0B901769567956431710518F0D2
:100A30006351710902C061E070E07F8B6E8B069795
:100A400018F0C901059702C081E090E0998F888F66
:100A5000C901880F991F820F931F969587959695C8
:100A600087958D30910510F00C9702C081E090E0E1
:100A70009B8F8A8F20916800E83050F091E0EE3033
:100A800008F490E081E001C0880F9A95EAF701C070
:100A900084E0822B809368002C85283038F02E303B
:100AA00040F0263148F48CE690E008C08DE690E0F6
:100AB00005C08BE690E002C080E090E09C8B8B8BC1
:100AC000283030F481E001C0880F2A95EAF70DC084
:100AD000822F90E02E3010F4089701C00E9791E01D
:100AE00001C0990F8A95EAF7892F8D8B8C8D9D8D8A
:100AF0000197F1F7CE01DF91CF910C94C503FC0172
:100B00001082118213821282148215821682178239
:100B10001086128611861386148615861686178609
:100B2000118A108A128A138A148A158A168A108EDC
:100B3000178A118E128E138E148E158E12A213A286
:100B400014A215A216A217A210AA11AA12AA13AAD9
:100B500014AA15AA16AE17AEDC01AC5BBF4F1D92EE
:100B60001D921D921C92139718961C9211961C921E
:100B7000119716961D921D921D921C9219971E9602
:100B80001C9211961C92119716961D921D921D9201
:100B90001C9219971E961C9211961C9211971696EC
:100BA0001D921D921D921C9219971E961C921196D1
:100BB0001C92119716961D921D921D921C921997C8
:100BC0001E961C9211961C92509682E08C93119660
:100BD0001C9211961C9211961C92119611961C92C1
:100BE0001E92129611961C921E9212961D921D92A2
:100BF0001D921C92139714961D921D921D921C9289
:100C0000139714961D921D921D921C921397149681
:100C10001D921D921D921C921397EA57FF4F10824E
:100C200008952FEB260F862F992787FD9095263064
:100C300010F4C79708956156663018F487559109E6
:100C40000895C0970895FF920F931F93CF93DF935A
:100C5000EC01FF24F39488818D3211F0F12C01C056
:100C60002196CE010E94D61D9B01AC01A4E6B0E006
:100C70000E94AF1BFE014991242F332727FD309599
:100C8000205331092A303105A8F34E3241F5218134
:100C9000332727FD3095205331092A303105F8F4E8
:100CA0004AE0429F8001439F100D1124222717FD27
:100CB0002095322F600F711F821F931F0281112711
:100CC00007FD1095005311090A30110540F4222741
:100CD00017FD2095322F600F711F821F931FFF2079
:100CE00039F090958095709561957F4F8F4F9F4F0C
:100CF000DF91CF911F910F91FF9008952F923F9216
:100D00004F925F926F927F928F929F92AF92BF921B
:100D1000CF92DF92EF92FF920F931F93CF93DF93C7
:100D2000D82FC92F8B010E94D61D24E630E040E069
:100D300050E00E94681B49015A019B01AC0160E828
:100D400076E988E990E00E94441B6B017C01F80180
:100D500091828082ED2FFC2F2191822F992787FD90
:100D60009095C0970A97C0F32E3239F51F0180E89D
:100D7000882E86E9982E88E9A82EB12C9AE0492E73
:100D8000512C612C712CF101C1911F01DD27C7FD90
:100D9000D095E097CA30D10580F4C501B401A30114
:100DA00092010E94681B49015A01DE010E94BA1B90
:100DB000C60ED71EE81EF91EE6CFA5E0B0E0A701DB
:100DC00096010E94AF1B6F5F7F4F8F4F9F4F23E0B5
:100DD00030E040E050E00E94681BF801228333833A
:100DE000448355831682DF91CF911F910F91FF901D
:100DF000EF90DF90CF90BF90AF909F908F907F90BB
:100E00006F905F904F903F902F900895CF93DF9316
:100E1000EC0187E0FE017096DE01129601900D92C2
:100E20008A95E1F787E0FE017796DE011996019039
:100E30000D928A95E1F70E9486136E8F7F8F88A3AB
:100E400099A381E089838883DF91CF910895CF9220
:100E5000DF92EF92FF92CF93DF93EC0119826A81C8
:100E60007B8180E090E00E94271A6B017C016C81FD
:100E70007D818E819F810E94271A28E23BE64EE603
:100E80005EE40E948E199B01AC01C701B6010E946D
:100E90002619288521119058DF91CF91FF90EF906E
:100EA000DF90CF900895CF92DF92EF92FF92CF9391
:100EB000DF93EC01198269857A8580E090E00E94D9
:100EC000271A6B017C016B857C858D859E850E9430
:100ED000271A28E23BE64EE65EE40E948E199B014B
:100EE000AC01C701B6010E9426192F852111905827
:100EF000DF91CF91FF90EF90DF90CF900895CF9347
:100F0000DF93EC014E815F81688579854A835B833D
:100F10006C837D830E9486136A877B878C879D877D
:100F200081E089838883DF91CF910895CF93DF9308
:100F3000EC014E815F81688579854A835B836C8390
:100F40007D830E9486136A877B878C879D8781E0DB
:100F500089838883DF91CF910895CF93DF93EC014C
:100F6000CB010E9423066E837F8388879987DF9158
:100F7000CF910895CF93DF93EC01CB010E94D61D52
:100F80006E837F8388879987DF91CF910895FC01D5
:100F90001182628173818481958124E630E040E092
:100FA00050E00E94681BCB018053984F0895CF9268
:100FB000DF92EF92FF92FC01118262817381848142
:100FC000958134E6C32ED12CE12CF12CA70196019A
:100FD0000E94681BCA01B901A70196010E94681B03
:100FE000862FFF90EF90DF90CF900895FC01118243
:100FF000628173818481958120E137E240E050E095
:101000000E94681B822F0895FC0111826281738106
:101010008481958120E432E44FE050E00E94681B17
:10102000822F0895FC0111826281738184819581F0
:1010300020E137E240E050E00E94681BCA01B9019C
:1010400024E630E040E050E00E94681B862F0895BF
:10105000CF92DF92EF92FF92FC0111826281738145
:101060008481958144E6C42ED12CE12CF12CA7017A
:1010700096010E94681BCA01B901A70196010E944E
:10108000681B862FFF90EF90DF90CF900895CF934D
:10109000DF93EC014A855B856C857D854E835F839C
:1010A000688779870E9486136A837B838C839D83FC
:1010B00081E089838883DF91CF910895CF93DF9377
:1010C000EC01CB010E9423066A877B878C879D8772
:1010D000DF91CF910895CF93DF93EC014A855B8533
:1010E0006C857D854E835F83688779870E94861330
:1010F0006A837B838C839D8381E089838883DF91EE
:10110000CF910895CF93DF93EC01CB010E94D61DC0
:101110006A877B878C879D87DF91CF910895CF93D6
:10112000DF93EC01BC0140960E940F1E0E948613C3
:1011300068A379A38AA39BA381E08DA38CA3DF91ED
:10114000CF91089540E150E00C94161EAF92BF92EB
:10115000CF92DF92FF920F931F93CF93DF93EC0117
:10116000FC01EB57FF4FF080FF2009F49CC0319643
:1011700060810E941106182FFE01E957FF4F608120
:10118000CE010E94110640E1149F800D1124FE0142
:10119000EC57FF4F9081891376C0B59640815181FD
:1011A000628173814F5F5F4F6F4F7F4F40835183E9
:1011B000628373838E0108561F4FD8018C91882358
:1011C00069F0389740815181628173814F5F5F4F31
:1011D0006F4F7F4F4083518362837383FE01EB56D1
:1011E000FF4F80818823C9F0813089F5CE01829636
:1011F0000E947F07CE01C0960E949607F801808169
:10120000882329F1CE010E940607CE01CE960E94C6
:101210004708CE01845B9F4F18C0CE01C0960E9444
:101220009607D8018C91882341F0CE010E940607D1
:10123000CE01865A9F4F0E944708CE0188599F4F82
:101240000E946B08CE018A589F4F0E9447088E016A
:1012500005561F4FF801C081D181209709F4FEC0C7
:10126000D801ED91FC9166A177A18EA19FA10E946A
:10127000061E892B09F0F2C0CE010E948F080AA435
:10128000DBA5C02DEACFCB55DF4F488159816A815C
:101290007B814F5F5F4F6F4F7F4F488359836A83D6
:1012A0007B83F12CDBC06C01B6E9CB0ED11CF601BF
:1012B00030818B569F4F5C018E0105561F4F3111B7
:1012C00034C06E0196E8C90ED11C6BE871E0C6010E
:1012D0000E94061E892B11F481E00BC061E971E0C8
:1012E000C6010E94061E892B19F4F501108203C065
:1012F00082E0D5018C93C756DF4F88819981F80130
:1013000091838083F801C081D181209709F4A6C020
:10131000B6018EA19FA10E94061E97FF9AC08AA5C2
:101320009BA5D8018D939C93EDCFDC01EC91E2302D
:1013300009F463C0CE018A579F4FDC012C91222310
:1013400009F45BC0B0E2EB9FF0011124E32B31976D
:10135000E932F10508F051C0EC5CFF4F0C94A91B79
:10136000BC01CE01C0960E94AD0747C0FE01E85601
:10137000FF4F81E0213461F52CC0BE01605F7F4FDB
:1013800009C081E0233509F080E08E8B36C0BE01B4
:10139000695E7F4F0E947E0630C081E0273509F0EC
:1013A00080E08D8F2AC0BC01CE01CE9624C0BC0146
:1013B000CE01845B9F4F1FC0BC01CE0182960E946C
:1013C000BA071BC0FE01E856FF4F81E021330CF441
:1013D00080E0808312C0BC01CE0188599F4F0E94DB
:1013E00082080BC0BC01CE018A589F4F04C0BC01CB
:1013F000CE01865A9F4F0E945E08F801A080B180FE
:10140000CA57DF4FA114B10449F1D801ED91FC9105
:1014100066A177A1F50186A197A10E94061E892BDE
:10142000E9F4D50198962D913C919997F601808128
:1014300090E08217930794F02817390721F4BE0132
:10144000C5010E94A208D5019A96AD90BC909B97C9
:10145000D9CF892B19F0D8011D921C928F2DDF91C5
:10146000CF911F910F91FF90DF90CF90BF90AF90E1
:101470000895CF92DF92EF92FF920F931F93CF9335
:10148000DF931F92CDB7DEB76C01262FFC01E35628
:10149000FF4F40815181628173814F5F5F4F6F4F7A
:1014A0007F4F40835183628373838C0109561F4FA2
:1014B0008B579F4F7C01243279F12CF42A3069F04C
:1014C0002D30E1F50AC02A3241F02C32B9F5F6018F
:1014D000EC57FF4F808182278083F80180818F3015
:1014E00060F4F601E80FF11DEA57FF4F1082C601C4
:1014F00029830E94A608298101C080E0F601EA56EE
:10150000FF4F90819F5F9083F801108291E02A3213
:1015100009F090E0F70128C0F8011082F601EA56C0
:10152000FF4F108272971082719682E08083F701DC
:101530001082F601E856FF4F108218C0F801808132
:101540008E3048F491E0980F9083F601E80FF11D7A
:10155000EA57FF4F2083F7018081811107C0F60110
:10156000EC57FF4F90819227908301C080E00F904D
:10157000DF91CF911F910F91FF90EF90DF90CF906F
:101580000895109201031092020310920503109225
:10159000070382E090E0A0E0B0E08093080390931E
:1015A0000903A0930A03B0930B0310921F03109238
:1015B0002903109228038FEB91E0909327038093E7
:1015C000260310922B03089580914903882399F1F3
:1015D0004091060150910701609108017091090145
:1015E0002CE433E080914A0390914B030E94501207
:1015F000882319F1409145035091460360914703B8
:1016000070914803411551056105710591F02CE475
:1016100033E080914A0390914B030E94501288233B
:1016200061F0109245031092460310924703109206
:1016300048031092490381E0089580E00895CF9215
:10164000DF92EF92FF92CF936B017C01C42F8091C8
:10165000060190910701A0910801B09109018C1534
:101660009D05AE05BF05D1F00E94E40A811102C0BC
:1016700080E01AC02CE433E0B701A60180914A0350
:1016800090914B030E94FD11882391F3C0920601B3
:10169000D0920701E0920801F0920901809149037C
:1016A0008C2B8093490381E0CF91FF90EF90DF90E6
:1016B000CF9008958F929F92AF92BF92CF92DF9278
:1016C000EF92FF920F931F93CF93DF938C016A01E8
:1016D0007B01E901FC0181859285A385B485019692
:1016E000A11DB11D84179507A607B70710F480E068
:1016F00058C0F80143895489658976898789803182
:1017000029F4BB27AF2D9E2D8D2D09C0D701C60111
:1017100027E0B695A795979587952A95D1F74C011F
:101720005D01840E951EA61EB71EC501B4018090F2
:10173000060190900701A0900801B090090168157A
:1017400079058A059B0589F4F8018789803199F428
:10175000DD24EE24FF24F601EE0FFF1FE45BFC4FB7
:1017600080819181A0E0B0E017C040E00E941F0B93
:101770008111EACFBCCFE894C7F8DD24EE24FF2422
:10178000F601EE0FFF1FEE0FFF1FE45BFC4F8081A1
:101790009181A281B381BF7088839983AA83BB831F
:1017A00081E0DF91CF911F910F91FF90EF90DF903B
:1017B000CF90BF90AF909F908F9008954F925F927F
:1017C0006F927F928F929F92AF92BF92CF92DF9251
:1017D000EF92FF920F931F93CF93DF93EC016A0177
:1017E0007B0128013901423051056105710508F47A
:1017F00074C049855A856B857C854F5F5F4F6F4FFD
:101800007F4F4C155D056E057F0508F466C08B881B
:101810009C88AD88BE888F89803129F477276F2D09
:101820005E2D4D2D09C0B701A601E7E076956795BD
:1018300057954795EA95D1F7840E951EA61EB71EBB
:1018400040910601509107016091080170910901D2
:1018500084169506A606B70671F48F89803199F42F
:10186000DD24EE24FF24F601EE0FFF1FE45BFC4FA6
:101870005182408218C040E0C501B4010E941F0B94
:101880008111EBCF2AC0E894C7F8DD24EE24FF24B1
:10189000F601EE0FFF1FEE0FFF1FE45BFC4F4082CF
:1018A00051826282738280914903816080934903EF
:1018B0008A89823080F08D819E81AF81B885880DC4
:1018C000991DAA1DBB1D8093450390934603A093C9
:1018D0004703B093480381E001C080E0DF91CF91DE
:1018E0001F910F91FF90EF90DF90CF90BF90AF903E
:1018F0009F908F907F906F905F904F9008952F9260
:101900003F924F925F926F927F929F92AF92BF925F
:10191000CF92DF92EF92FF920F931F93CF93DF93BB
:10192000CDB7DEB760970FB6F894DEBF0FBECDBF60
:101930005C014D875E876F87788B1901D9014D90C7
:101940005D906D907C90411451046104710431F0FC
:10195000BFEF4B1A5B0A6B0A7B0A10C0FC01408088
:10196000518062807380992493940D851E852F8504
:101970003889013011052105310509F0912CD50177
:1019800019962D913D914D915C911C972F5F3F4F82
:101990004F4F5F4F29873A874B875C8773016201FE
:1019A0001D821E821F821886F50181859285A3857E
:1019B000B4850D811E812F813885081719072A07E4
:1019C0003B0708F056C029853A854B855C852C1568
:1019D0003D054E055F0550F4A2E0CA2ED12CE12C46
:1019E000F12CB2E04B2E512C612C712C9E012F5FFB
:1019F0003F4FB701A601C5010E945A0B8823C9F1C8
:101A000049815A816B817C81D701C6010196A11D54
:101A1000B11D452B462B472B19F02C013D010FC062
:101A2000AC01BD0144195509660977090D851E856C
:101A30002F853889401751076207730779F02D8188
:101A40003E814F8158852F5F3F4F4F4F5F4F2D8312
:101A50003E834F8358876C017D01A6CF0FEF1FEFA8
:101A60002FEF3FE0B701A601C5010E94DE0B8111F7
:101A700018C080E041C0D701C6010197A109B10992
:101A80008D839E83AF83B88797018601AC01BD012A
:101A9000C5010E94DE0B882361F3CD80DE80EF80DC
:101AA000F8844C145D046E047F0428F3D1014D9139
:101AB0005D916D917C91411551056105710599F418
:101AC000F10140825182628273829920A1F0FFEF7E
:101AD0004F1A5F0A6F0A7F0AD5014D925D926D928F
:101AE0007C92139708C093018201C5010E94DE0B0E
:101AF0008111E6CFBECF81E060960FB6F894DEBFCD
:101B00000FBECDBFDF91CF911F910F91FF90EF904E
:101B1000DF90CF90BF90AF909F907F906F905F903D
:101B20004F903F902F900895CF93DF93EC019C014D
:101B30002A5F3F4F41E050E060E070E08B8D9C8D6C
:101B40000E947F0C8823A1F04F89588D698D7A8D72
:101B5000452B462B472B71F44E815F816885798533
:101B60004F8B588F698F7A8F8C8180688C8302C0ED
:101B700080E001C081E0DF91CF910895CF93DF93A2
:101B8000EC01462F6E857F85888999890E941F0BFD
:101B9000882341F08A8920E2829FC0011124845B5E
:101BA0009C4F02C080E090E0DF91CF9108954F926A
:101BB0005F926F927F92AF92BF92CF92DF92EF923D
:101BC000FF920F931F93CF93DF93EC016A017B0188
:101BD0002D81222309F457C08B899C89AD89BE8948
:101BE00084179507A607B70708F44DC04EC08A852D
:101BF0009B85AC85BD85EB8DFC8DE585F0E0399648
:101C0000AC01BD0141505109610971090E2E04C09A
:101C100076956795579547950A94D2F7970186016F
:101C2000015011092109310904C0369527951795EE
:101C30000795EA95D2F70417150726073707B0F579
:101C40008F89988DA98DBA8D8E839F83A887B98738
:101C5000280139015E0186E0A80EB11C411451042F
:101C60006104710461F14E815F8168857985950118
:101C70008B8D9C8D0E945A0B91E0491A5108610886
:101C800071088111EBCF80E01FC02230C1F0C11478
:101C9000D104E104F10409F0AACF1E821F82188644
:101CA00019861A861B861C861D860DC0892B8A2BD9
:101CB0008B2B31F2041B150B260B370BC9CFCA86B1
:101CC000DB86EC86FD8681E0DF91CF911F910F913D
:101CD000FF90EF90DF90CF90BF90AF907F906F908C
:101CE0005F904F9008950F931F93CF93DF93EC0174
:101CF0008D818823C9F18C8187FF30C061E0CE01DE
:101D00000E94BE0D8C01009779F18D81823048F4DC
:101D10004B895C896D897E89F801448F558F668F68
:101D2000778F4F89588D698D7A8DF801538F428F47
:101D3000758B648BE0914C05F0914D05309759F00F
:101D4000B8016A5E7F4FC80148960995F801808DF9
:101D5000918D938B828B8C818F778C83DF91CF9148
:101D60001F910F910C94E40A80E0DF91CF911F91B5
:101D70000F9108952F923F924F925F926F927F92B0
:101D80008F929F92AF92BF92CF92DF92EF92FF928B
:101D90000F931F93CF93DF9300D000D01F92CDB746
:101DA000DEB78C017B013A01DC0115968C91159709
:101DB0008130C9F414968C9181FF15C082FF1BC03D
:101DC000F801438954896589768982859385A4853C
:101DD000B58584179507A607B70769F0C8010E9463
:101DE000D70D811108C081E090E0F80193838283D0
:101DF00080E090E046C1630180C0D8015B968D9180
:101E00009C915C97FC01F481F150B501A40129E09B
:101E100076956795579547952A95D1F7F423FD83D5
:101E200021E09222FF2309F474C080E092E0881937
:101E3000990956018C159D0508F45C01D8015B9643
:101E4000ED91FC915C9716962D903D904D905C9095
:101E50001997B2E02B1A310841085108058404C0D3
:101E6000220C331C441C551C0A94D2F78685978596
:101E7000A089B189280E391E4A1E5B1EED812E0EE7
:101E8000311C411C511CA114F2E0BF0609F088C0AE
:101E90008091060190910701A0910801B09109017C
:101EA00082159305A405B50559F48FEF9FEFDC016A
:101EB0008093060190930701A0930801B093090154
:101EC0009701B201A10180914A0390914B030E94B6
:101ED0005012882309F487CF9EEFF91ACA18DB083D
:101EE000F80182859385A485B5858A0D9B1DA11D6A
:101EF000B11D82879387A487B587D8011A968D90E4
:101F00009D90AD90BC901D97C114D10409F075CF80
:101F10008AC08114910409F088CF16964D915D9185
:101F20006D917C911997411551056105710559F421
:101F300057968D919D910D90BC91A02D0097A10574
:101F4000B10541F521C09E012F5F3F4F0E945A0B02
:101F5000882309F44ECF89819A81AB81BC81F80135
:101F6000238D348DF9012789203129F448EF5FEF63
:101F700060E070E004C048EF5FEF6FEF7FE0841730
:101F80009507A607B70730F0C8010E94940D81118C
:101F90004CCF29CFF80186839783A087B18745CF9F
:101FA0008114910429F5D8011A964D915D916D9196
:101FB0007C911D9753968D919D910D90BC91A02D74
:101FC000481759076A077B0798F00E94E40A88239C
:101FD00009F409CF209206013092070140920801CE
:101FE000509209018091490381608093490308C0A0
:101FF00041E0C201B1010E941F0B882309F4F3CE16
:10200000C401845B9C4FD7019C012A0D3B1DFC0140
:10201000E217F30719F04D914193FACFE81BF90B42
:10202000EE0EFF1E5BCF53968D919D910D90BC914E
:10203000A02DF801248188159905AA05BB0538F45F
:10204000838A948AA58AB68A206824830CC08091EA
:102050004C0590914D05892B31F06114710419F0F4
:102060002068F8012483D80114968C9183FD02C066
:10207000C30107C0C8010E94730E882309F4B3CEC0
:10208000F7CF0F900F900F900F900F90DF91CF919F
:102090001F910F91FF90EF90DF90CF90BF90AF9086
:1020A0009F908F907F906F905F904F903F902F9078
:1020B0000895CF93DF931F92CDB7DEB7698341E0D8
:1020C00050E0BE016F5F7F4F0E94BA0E0F90DF910C
:1020D000CF9108959FB7F8942091FB028091F90267
:1020E000213019F48DBB9FBF08958FBF08952091B3
:1020F000FB02222399F03FB7F8942091FB02213094
:1021000059F42DB32093F9024DB32091FA02209592
:1021100024232DBB3FBF02C03093F9028CBD9DBD6F
:1021200008958EBD00000DB407FEFDCF8EB5089555
:102130008FEF0C94911061E0FC0184810E940613E2
:1021400080914E05882339F010924E058091FB0254
:1021500081110C946A100895CF93DF93EC01809164
:102160004E05811109C081E080934E0580914F0595
:10217000909150050E94771060E08C81DF91CF91A3
:102180000C940613CF93DF93EC018E81882389F0A2
:102190008F8198859C012F5F3F4F38872F83823036
:1021A000924018F40E949810F3CFCE010E949B1029
:1021B0001E82DF91CF9108950F931F93CF93DF93EA
:1021C000EB010E9486138B010E9498108F3F49F00B
:1021D0000E948613601B710B6C177D07A8F380E0CB
:1021E00001C081E0DF91CF911F910F910895CF92AF
:1021F000DF92FF920F931F93CF93DF9300D000D015
:10220000CDB7DEB76C01F62E29833A834B835C830E
:102210000E94C210C6010E94AC106CE271E0C601BF
:102220000E94DC108F2D80640E94911008E110E064
:102230005C814B813A812981DA01C901002E04C0F9
:10224000B695A795979587950A94D2F729833A83EF
:102250004B835C830E9491100850110929813A81B7
:102260004B815C81083F8FEF180731F7FF2029F081
:10227000E8E0FE1621F08FEF03C085E901C087E892
:102280000E94911010E00E949810F601828787FF4B
:1022900004C01F3F11F01F5FF6CF0F900F900F90FB
:1022A0000F90DF91CF911F910F91FF90DF90CF9012
:1022B00008950F931F93CF93DF93EC010E94861331
:1022C0008B010E9498108A878F3F49F40E948613E1
:1022D000601B710B6D327140A0F38FE003C08E3F25
:1022E00039F08DE08D83CE010E949B1080E001C00B
:1022F00081E0DF91CF911F910F910895CF92DF92EE
:10230000EF92FF920F931F93CF93DF93EC0169013C
:102310000115110509F462C0C801820F931F8130B5
:10232000924008F05DC08E81882371F08881998188
:10233000AA81BB81481759076A077B0729F48F8157
:102340009885C816D90610F5488359836A837B831C
:102350008B85833039F039E0440F551F661F771F96
:102360003A95D1F79A01AB0161E1CE010E94F710D5
:10237000882319F083E08D8333C0CE010E94591168
:10238000882371F118861F8281E08E838F81988562
:102390008C159D0540F40E9498108F8198850196B8
:1023A00098878F83F3CF6701E00EF11ECE14DF0410
:1023B00031F00E949810F60181936F01F7CF8F8161
:1023C0009885800F911F98878F832985222319F084
:1023D0008115924018F0CE010E94C21081E004C025
:1023E000CE010E949B1080E0DF91CF911F910F9151
:1023F000FF90EF90DF90CF900895EF92FF920F93B0
:102400001F93790100E012E020E030E00E947E118D
:102410001F910F91FF90EF900895CF92DF92EF926E
:10242000FF920F931F93CF93DF9300D0CDB7DEB70A
:102430008C01862F49835A830E9491104981C42EB2
:102440005A81D52EE12CF12CF60181916F010E9469
:102450009110FFEFEF1AFF0AE11482E0F806A1F7EE
:102460008FEF0E9491108FEF0E9491100E949810A0
:10247000F80182878F71853039F081E18583C80149
:102480000E949B1080E001C081E00F900F90DF91CF
:10249000CF911F910F91FF90EF90DF90CF90089513
:1024A0000F931F93CF93DF93EC01890141155105E1
:1024B0006105710511F482E132C08B85833039F0FA
:1024C00089E0440F551F661F771F8A95D1F79A013F
:1024D000AB0168E1CE010E94F710882311F084E07F
:1024E0001EC0A8016EEFCE010E940D128823C1F01C
:1024F00068E572E0CE010E94DC10811102C085E126
:102500000EC020E030E0A9016DE0CE010E94F7107E
:10251000811104C00E949810882339F084E18D83D2
:10252000CE010E949B1080E004C0CE010E949B104F
:1025300081E0DF91CF911F910F91089580E5809305
:102540004F05109250050895833081F028F48130B2
:1025500099F08230A1F008958730A9F08830B9F061
:102560008430D1F4809180008F7D03C08091800001
:102570008F7780938000089584B58F7702C084B5EB
:102580008F7D84BD08958091B0008F7703C08091C6
:10259000B0008F7D8093B0000895CF93DF9390E0DB
:1025A000FC01E253FF4F2491FC01EE51FF4F849157
:1025B000882349F190E0880F991FFC01E65FFE4FE8
:1025C000A591B49180509F4FFC01C591D4919FB7C4
:1025D000611108C0F8948C91209582238C93888196
:1025E00082230AC0623051F4F8948C91322F3095D6
:1025F00083238C938881822B888304C0F8948C91E8
:10260000822B8C939FBFDF91CF9108950F931F93DF
:10261000CF93DF931F92CDB7DEB7282F30E0F901BB
:10262000E654FF4F8491F901E253FF4F1491F901F1
:10263000EE51FF4F04910023C9F0882321F06983F4
:102640000E94A4126981E02FF0E0EE0FFF1FE0501E
:10265000FF4FA591B4919FB7F8948C91611103C07D
:102660001095812301C0812B8C939FBF0F90DF9128
:10267000CF911F910F9108951F920F920FB60F9255
:1026800011242F933F938F939F93AF93BF93809188
:10269000520590915305A0915405B0915505309184
:1026A000510523E0230F2D3720F40196A11DB11D04
:1026B00005C026E8230F0296A11DB11D20935105E8
:1026C0008093520590935305A0935405B0935505FC
:1026D0008091560590915705A0915805B0915905E4
:1026E0000196A11DB11D8093560590935705A093A7
:1026F0005805B0935905BF91AF919F918F913F912C
:102700002F910F900FBE0F901F9018952FB7F89430
:102710006091520570915305809154059091550533
:102720002FBF08953FB7F8948091560590915705B3
:10273000A0915805B091590526B5A89B05C02F3F1B
:1027400019F00196A11DB11D3FBF6627782F892F73
:102750009A2F620F711D811D911D42E0660F771F38
:10276000881F991F4A95D1F70895CF92DF92EF9273
:10277000FF92CF93DF936B017C010E949213EB01D8
:10278000C114D104E104F10489F00E9424190E94CB
:1027900092136C1B7D0B683E734090F381E0C81A66
:1027A000D108E108F108C851DC4FEACFDF91CF91A1
:1027B000FF90EF90DF90CF900895789484B5826079
:1027C00084BD84B5816084BD85B5826085BD85B5D5
:1027D000816085BDEEE6F0E0808181608083E1E884
:1027E000F0E01082808182608083808181608083BC
:1027F000E0E8F0E0808181608083E1EBF0E08081BF
:1028000084608083E0EBF0E0808181608083EAE790
:10281000F0E0808184608083808182608083808119
:10282000816080838081806880831092C1000895D8
:102830001F920F920FB60F9211242F938F939F9395
:10284000EF93FF93E0916A05F0916B058081E09131
:102850007005F091710582FD12C090818091730521
:102860008F5F8F7320917405821751F0E09173058B
:10287000F0E0E65AFA4F958F8093730501C080818E
:10288000FF91EF919F918F912F910F900FBE0F901D
:102890001F9018951F920F920FB60F9211242F932D
:1028A0003F934F935F936F937F938F939F93AF93D8
:1028B000BF93EF93FF938AE595E00E941A18FF916A
:1028C000EF91BF91AF919F918F917F916F915F91A8
:1028D0004F913F912F910F900FBE0F901F90189521
:1028E0008AE595E00E94DF1721E0892B09F420E0BA
:1028F000822F089510925D0510925C0588EE93E09A
:10290000A0E0B0E080935E0590935F05A093600522
:10291000B093610586ED91E090935B0580935A0535
:1029200085EC90E0909367058093660584EC90E0D9
:10293000909369058093680580EC90E090936B0517
:1029400080936A0581EC90E090936D0580936C050F
:1029500082EC90E090936F0580936E0586EC90E09A
:102960009093710580937005109273051092740511
:102970001092750510927605089508950E94DD1352
:102980000E94BD140E942F01CCE0D8E10E94ED010D
:102990002097E1F30E940C18F9CFFC01808191810E
:1029A0000C947D1CCF93DF93EC0188819981009773
:1029B00011F00E947D1C198218821D821C821B82CC
:1029C0001A82DF91CF9108950F931F93CF93DF93D6
:1029D000EC018B016F5F7F4F888199810E940C1DF4
:1029E000009731F0998388831B830A8381E001C0BB
:1029F00080E0DF91CF911F910F910895CF93DF93E6
:102A0000EC0188819981892B29F08A819B81861725
:102A1000970760F4CE010E94E414882341F08C8172
:102A20009D81892B19F4E881F981108281E0DF9181
:102A3000CF910895EF92FF920F931F93CF93DF935F
:102A4000EC017B018A01BA010E94FE14811104C0CD
:102A5000CE010E94D21407C01D830C83B701888168
:102A600099810E940F1ECE01DF91CF911F910F918E
:102A7000FF90EF900895CF93DF93EC0161157105FE
:102A800061F0FB0101900020E9F7AF0141505109CD
:102A9000461B570B0E941A1502C00E94D214CE0189
:102AA000DF91CF9108950F931F93CF93DF93CDB70D
:102AB000DEB761970FB6F894DEBF0FBECDBF8C01B5
:102AC000CB01F801118210821382128215821482C6
:102AD00050E0BE016F5F7F4F0E943A1EBE016F5FE4
:102AE0007F4FC8010E943B1561960FB6F894DEBF78
:102AF0000FBECDBFDF91CF911F910F910895CF925F
:102B0000DF92EF92FF920F931F93CF93DF936C01AD
:102B10007A01EB01E60EF71E00E010E0CE15DF05AE
:102B200061F06991D601ED91FC910190F081E02D69
:102B3000C6010995080F191FF1CFC801DF91CF9188
:102B40001F910F91FF90EF90DF90CF900895611546
:102B5000710581F0DB010D900020E9F7AD014150D6
:102B60005109461B570BDC01ED91FC910280F3816A
:102B7000E02D099480E090E00895DC01ED91FC9156
:102B8000DB0114964D915C9115976D917C910280BB
:102B9000F381E02D09940C94A715DC01ED91FC91D3
:102BA0000190F081E02D099463EC71E00C94A7157D
:102BB0000F931F93CF93DF93EC010E94BD158C01FF
:102BC000CE010E94D415800F911FDF91CF911F91EC
:102BD0000F9108950F931F93CF93DF93EC010E9401
:102BE000A7158C01CE010E94D415800F911FDF9193
:102BF000CF911F910F9108958F929F92AF92BF92A4
:102C0000CF92DF92EF92FF920F931F93CF93DF93B8
:102C1000CDB7DEB7A1970FB6F894DEBF0FBECDBF1C
:102C20007C01C42EE52FCB01D22E19A221E02D1557
:102C300010F02AE0D22E8E010F5D1F4F8D2C912CAB
:102C4000A12CB12C6C2D7E2FA50194010E94681B34
:102C50008C2DD29E80191124015011098A3014F450
:102C6000805D01C0895CF801808321153105410533
:102C7000510521F0C22EE32FCA01E4CFB801C701EC
:102C80000E94A715A1960FB6F894DEBF0FBECDBF68
:102C9000DF91CF911F910F91FF90EF90DF90CF9038
:102CA000BF90AF909F908F900895CF92DF92EF9258
:102CB000FF920F931F93CF93DF93EC016A017B0187
:102CC0002115310579F4E881F9810190F081E02D39
:102CD000642FDF91CF911F910F91FF90EF90DF90C4
:102CE000CF9009942A303105E9F477FF1AC06DE2DC
:102CF0000E94CD158C0144275527BA014C195D0956
:102D00006E097F092AE0CE010E94FC15800F911FF9
:102D1000DF91CF911F910F91FF90EF90DF90CF90B7
:102D200008952AE0B701A601CE01DF91CF911F914E
:102D30000F91FF90EF90DF90CF900C94FC15211530
:102D4000310541F4DC01ED91FC910190F081E02D21
:102D5000642F09940C94FC159A01462F50E060E012
:102D600070E00C949F160F931F93CF93DF93EC01A9
:102D70009A01462F50E060E070E00E949F168C019F
:102D8000CE010E94D415800F911FDF91CF911F912A
:102D90000F9108959A01AB0160E070E00C949F16CA
:102DA0000F931F93CF93DF93EC010E949F168C012A
:102DB000CE010E94D415800F911FDF91CF911F91FA
:102DC0000F9108954F925F926F927F928F929F9290
:102DD000AF92BF92CF92DF92EF92FF920F931F9329
:102DE000CF93DF93EC016A017B01B22E9A01AB0114
:102DF000C701B6010E94401B882319F066EC71E000
:102E000027C026013701E89477F82FEF3FEF4FE70F
:102E10005FE7C301B2010E94401B81110DC02FEF7B
:102E20003FEF4FE75FE7C301B2010E948A1918160E
:102E30001CF46AEC71E00CC02FEF3FEF4FE75FE44A
:102E4000C701B6010E94D91A1816ACF46EEC71E0F5
:102E5000CE01DF91CF911F910F91FF90EF90DF9006
:102E6000CF90BF90AF909F908F907F906F905F902A
:102E70004F900C94A7152FEF3FEF4FE75FECC70182
:102E8000B6010E948A1987FDE1CF20E030E0A90158
:102E9000C701B6010E948A1987FF0AC06DE2CE0100
:102EA0000E94CD158C01F7FAF094F7F8F09402C067
:102EB00000E010E0A12C60E070E080E09FE3AB1444
:102EC00041F020E030E040E251E40E948E19A394EA
:102ED000F6CF9B01AC01C701B6010E9426196B0118
:102EE0007C010E94FB192B013C010E94271A9B01C7
:102EF000AC01C701B6010E9425196B017C012AE0D3
:102F0000B301A201CE010E94FC15080F191FBB20BE
:102F100039F06CE571E0CE010E94A715080F191F6A
:102F20007B2C772041F120E030E040E251E4C70102
:102F3000B6010E94DD1A6B017C010E94F6194B015B
:102F4000AA2497FCA094BA2C2AE030E0B501A40191
:102F5000CE010E945516080F191FC501B4010E9429
:102F6000291A9B01AC01C701B6010E9425196B010A
:102F70007C017A94D6CFC801DF91CF911F910F9138
:102F8000FF90EF90DF90CF90BF90AF909F908F9089
:102F90007F906F905F904F9008950F931F93CF9302
:102FA000DF93EC010E94E2168C01CE010E94D41541
:102FB000800F911FDF91CF911F910F910895FC0118
:102FC000818D228D90E0805C9F4F821B91098F73D1
:102FD00099270895FC01918D828D981731F0828D8B
:102FE000E80FF11D858D90E008958FEF9FEF089514
:102FF000FC01918D828D981761F0828DDF01A80F01
:10300000B11D5D968C91928D9F5F9F73928F90E022
:1030100008958FEF9FEF089580E794E1892B49F0A1
:1030200080E090E0892B29F00E94701481110C94AB
:1030300000000895FC01848DDF01A80FB11DA35A83
:10304000BF4F2C91848D90E001968F739927848FC8
:10305000A689B7892C93A089B1898C9180648C93BF
:10306000938D848D981306C00288F389E02D8081AA
:103070008F7D80830895CF93DF93EC01888D882323
:10308000C9F0EA89FB89808185FD05C0A889B989D5
:103090008C9186FD0FC00FB607FCF5CF808185FFB0
:1030A000F2CFA889B9898C9185FFEDCFCE010E941E
:1030B0001A18E7CFDF91CF910895CF92DF92FF9258
:1030C0000F931F93CF93DF931F92CDB7DEB76C01A1
:1030D00081E0D60158968C9358975B969C915B97AC
:1030E0005C968C915C97981307C05096ED91FC917B
:1030F0005197808185FD2EC0F601038D10E00F5F92
:103100001F4F0F731127F02EF601848DF81211C096
:103110000FB607FCF9CFD6015096ED91FC9151976F
:10312000808185FFF1CFC60169830E941A186981E9
:10313000EBCF838DE80FF11DE35AFF4F6083D6017B
:103140005B960C935B975296ED91FC91539780811F
:1031500080620CC0D6015696ED91FC915797608322
:103160005096ED91FC91519780818064808381E03D
:1031700090E00F90DF91CF911F910F91FF90DF9022
:10318000CF900895BF92CF92DF92EF92FF92CF93AC
:10319000DF93EC016A017B01B22EE889F98982E0B4
:1031A0008083411581EE580761057105A1F060E04B
:1031B00079E08DE390E0A70196010E94681B215001
:1031C000310941095109569547953795279521159C
:1031D00080E1380798F0E889F989108260E874E89E
:1031E0008EE190E0A70196010E94681B21503109F1
:1031F000410951095695479537952795EC85FD85E9
:103200003083EE85FF852083188EEC89FD89B0829E
:10321000EA89FB89808180618083EA89FB898081DA
:1032200088608083EA89FB89808180688083EA895D
:10323000FB8980818F7D8083DF91CF91FF90EF901C
:10324000DF90CF90BF90089508955058BB27AA27CC
:103250000ED075C166D130F06BD120F031F49F3FB4
:1032600011F41EF45BC10EF4E095E7FB51C1E92FA8
:1032700077D180F3BA17620773078407950718F0B0
:1032800071F49EF58FC10EF4E0950B2EBA2FA02D90
:103290000B01B90190010C01CA01A0011124FF2703
:1032A000591B99F0593F50F4503E68F11A16F040FE
:1032B000A22F232F342F4427585FF3CF46953795FD
:1032C0002795A795F0405395C9F77EF41F16BA0BC2
:1032D000620B730B840BBAF09150A1F0FF0FBB1F70
:1032E000661F771F881FC2F70EC0BA0F621F731FB9
:1032F000841F48F4879577956795B795F7959E3F16
:1033000008F0B3CF9395880F08F09927EE0F9795A3
:1033100087950895D9D008F481E008950CD00FC1A5
:1033200007D140F0FED030F021F45F3F19F0F0C03B
:10333000511139C1F3C014D198F39923C9F355231E
:10334000B1F3951B550BBB27AA2762177307840798
:1033500038F09F5F5F4F220F331F441FAA1FA9F34E
:1033600033D00E2E3AF0E0E830D091505040E69540
:10337000001CCAF729D0FE2F27D0660F771F881FA1
:10338000BB1F261737074807AB07B0E809F0BB0B90
:10339000802DBF01FF2793585F4F2AF09E3F5105B4
:1033A00068F0B6C000C15F3FECF3983EDCF3869551
:1033B00077956795B795F7959F5FC9F7880F911D2A
:1033C0009695879597F90895E1E0660F771F881F16
:1033D000BB1F621773078407BA0720F0621B730BC9
:1033E000840BBA0BEE1F88F7E095089504D068941B
:1033F000B111D9C00895BCD088F09F5790F0B92F73
:103400009927B751A0F0D1F0660F771F881F991F39
:103410001AF0BA95C9F712C0B13081F0C3D0B1E04B
:103420000895C0C0672F782F8827B85F39F0B93F5B
:10343000CCF3869577956795B395D9F73EF490953B
:103440008095709561957F4F8F4F9F4F0895E894B9
:1034500009C097FB3EF490958095709561957F4FDC
:103460008F4F9F4F9923A9F0F92F96E9BB2793958A
:10347000F695879577956795B795F111F8CFFAF49A
:10348000BB0F11F460FF1BC06F5F7F4F8F4F9F4FCB
:1034900016C0882311F096E911C0772321F09EE829
:1034A000872F762F05C0662371F096E8862F70E08F
:1034B00060E02AF09A95660F771F881FDAF7880F69
:1034C0009695879597F90895990F0008550FAA0BBF
:1034D000E0E8FEEF16161706E807F907C0F0121627
:1034E0001306E407F50798F0621B730B840B950B2A
:1034F00039F40A2661F0232B242B252B21F408957F
:103500000A2609F4A140A6958FEF811D811D08951B
:1035100097F99F6780E870E060E008959FEF80EC86
:10352000089500240A941616170618060906089529
:1035300000240A9412161306140605060895092E8F
:103540000394000C11F4882352F0BB0F40F4BF2BFE
:1035500011F460FF04C06F5F7F4F8F4F9F4F08953E
:1035600057FD9058440F551F59F05F3F71F0479534
:10357000880F97FB991F61F09F3F79F08795089519
:10358000121613061406551FF2CF4695F1DF08C038
:10359000161617061806991FF1CF86957105610555
:1035A00008940895E894BB2766277727CB0197F9FD
:1035B00008958ADF08F48FEF08950BD0C0CFB1DFF4
:1035C00028F0B6DF18F0952309F0A2CFA7CF112479
:1035D000EACFC6DFA0F3959FD1F3950F50E0551FBA
:1035E000629FF001729FBB27F00DB11D639FAA2758
:1035F000F00DB11DAA1F649F6627B00DA11D661FA7
:10360000829F2227B00DA11D621F739FB00DA11DC7
:10361000621F839FA00D611D221F749F3327A00D81
:10362000611D231F849F600D211D822F762F6A2F1D
:1036300011249F5750408AF0E1F088234AF0EE0FA2
:10364000FF1FBB1F661F771F881F91505040A9F7AF
:103650009E3F510570F05CCFA6CF5F3FECF3983EE4
:10366000DCF3869577956795B795F795E7959F5F16
:10367000C1F7FE2B880F911D9695879597F90895B0
:1036800023DF880B990B0895DB018F939F930E9492
:10369000AF1BBF91AF91A29F800D911DA39F900D75
:1036A000B29F900D1124089597FB072E16F40094F5
:1036B00007D077FD09D00E94C21B07FC05D03EF45D
:1036C000909581959F4F0895709561957F4F0895CE
:1036D000A1E21A2EAA1BBB1BFD010DC0AA1FBB1F16
:1036E000EE1FFF1FA217B307E407F50720F0A21B88
:1036F000B30BE40BF50B661F771F881F991F1A94F5
:1037000069F760957095809590959B01AC01BD011E
:10371000CF010895052E97FB1EF400940E94A11B73
:1037200057FD07D00E94681B07FC03D04EF40C9491
:10373000A11B50954095309521953F4F4F4F5F4FBE
:10374000089590958095709561957F4F8F4F9F4F0D
:103750000895EE0FFF1F0590F491E02D09940E944B
:10376000D61BA59F900DB49F900DA49F800D911D19
:1037700011240895B7FF0C94AF1B0E94AF1B821B4E
:10378000930B0895AA1BBB1B51E107C0AA1FBB1FC7
:10379000A617B70710F0A61BB70B881F991F5A95DD
:1037A000A9F780959095BC01CD010895A29FB00125
:1037B000B39FC001A39F700D811D1124911DB29F65
:1037C000700D811D1124911D0895CF93DF938230D8
:1037D000910510F482E090E0E091F905F091FA058E
:1037E00020E030E0A0E0B0E0309739F14081518135
:1037F00048175907B8F04817590771F48281938127
:10380000109729F013969C938E9312972CC0909347
:10381000FA058093F90527C02115310531F04217CB
:10382000530718F0A901DB0101C0EF019A01BD01A6
:10383000DF010280F381E02DD7CF21153105F9F0AA
:10384000281B390B2430310580F48A819B81611556
:10385000710521F0FB019383828304C09093FA05E4
:103860008093F905FE01329644C0FE01E20FF31F7A
:103870008193919322503109398328833AC0209152
:10388000F7053091F805232B41F420910201309186
:1038900003013093F8052093F70520910001309142
:1038A00001012115310541F42DB73EB740910401C6
:1038B00050910501241B350BE091F705F091F805B7
:1038C000E217F307A0F42E1B3F0B2817390778F0F7
:1038D000AC014E5F5F4F2417350748F04E0F5F1F56
:1038E0005093F8054093F7058193919302C0E0E06F
:1038F000F0E0CF01DF91CF910895CF93DF93009750
:1039000009F487C0FC01329713821282C091F90535
:10391000D091FA05209781F420813181280F391F39
:103920008091F7059091F8058217930779F5F09348
:10393000F805E093F7056DC0DE0120E030E0AE173A
:10394000BF0750F412964D915C9113979D0141155C
:10395000510509F1DA01F3CFB383A283408151818C
:10396000840F951F8A179B0771F48D919C91119775
:10397000840F951F02969183808312968D919C915E
:103980001397938382832115310529F4F093FA0567
:10399000E093F9053EC0D9011396FC93EE9312977C
:1039A0004D915D91A40FB51FEA17FB0779F4808153
:1039B0009181840F951F0296D90111969C938E9345
:1039C0008281938113969C938E931297E0E0F0E0AE
:1039D0008A819B81009719F0FE01EC01F9CFCE019D
:1039E000029628813981820F931F2091F70530912B
:1039F000F8052817390769F4309729F41092FA0569
:103A00001092F90502C013821282D093F805C09378
:103A1000F705DF91CF910895A0E0B0E0E2E1FDE18C
:103A20000C94891EEC01CB01209719F40E94E51B30
:103A3000B8C0FE01E60FF71F9E0122503109E217C0
:103A4000F30708F4ACC0D9010D911C91119706172A
:103A50001707B8F00530110508F49FC0A8014450BD
:103A600051094617570708F498C002501109061B60
:103A7000170B019311936D937C93CF010E947D1CD2
:103A80008CC05B01A01AB10A4E01800E911EA0915C
:103A9000F905B091FA05612C712C60E070E0109787
:103AA00009F449C0A815B905C9F5ED90FC90119726
:103AB000670142E0C40ED11CCA14DB0478F147014F
:103AC0008A189B08640142E0C40ED11C1296BC9077
:103AD00012971396AC91B5E0CB16D10440F0B282A8
:103AE000A38391828082D9018D939C9309C00E5F3C
:103AF0001F4F0E0D1F1DF90111830083EB2DFA2FAF
:103B00006115710531F0DB011396FC93EE9312976A
:103B100044C0F093FA05E093F9053FC06D917C91A4
:103B200011976616770608F43B01BD0112960D90B9
:103B3000BC91A02DB4CF6091F7057091F805681580
:103B40007905E9F468167906D0F4409100015091A6
:103B500001014115510541F44DB75EB76091040173
:103B600070910501461B570BE417F507C0F4F0935D
:103B7000F805E093F705F901918380830EC00E9458
:103B8000E51B7C01009759F0A801BE010E94FD1DB4
:103B9000CE010E947D1CC70104C0CE0102C080E09E
:103BA00090E0CDB7DEB7EEE00C94A51E1F93FC01AC
:103BB00099278827BC01E89411911032E9F3193054
:103BC00010F01E30C8F31B3251F01D3249F46894D6
:103BD00006C00E94251E610F711D811D911D11914E
:103BE00010531A30B0F33EF490958095709561951E
:103BF0007F4F8F4F9F4F1F910895FB01DC0102C043
:103C000001900D9241505040D8F70895FB01DC011E
:103C10008D91019080190110D9F3990B0895FB0142
:103C2000DC0101900D920020E1F70895FB01DC0119
:103C30004150504048F001900D920020C9F701C05A
:103C40001D9241505040E0F70895592F482F372FCB
:103C5000262F660F771F881F991F660F771F881FF3
:103C6000991F620F731F841F951F660F771F881F90
:103C7000991F08954532510520F4423010F00C94FC
:103C8000451EFB011082CB010895BB27FB01552780
:103C9000AA27880F991FAA1FA41710F0A41B8395A9
:103CA0005051B9F7A05DAA3308F0A95DA193009720
:103CB00079F7B111B1931192CB010C94751EF9995A
:103CC000FECF92BD81BDF89A992780B50895262F21
:103CD000F999FECF1FBA92BD81BD20BD0FB6F894F1
:103CE000FA9AF99A0FBE01960895DC01FC01672F3C
:103CF00071917723E1F7329704C07C916D937083C3
:103D00006291AE17BF07C8F308952F923F924F926A
:103D10005F926F927F928F929F92AF92BF92CF925B
:103D2000DF92EF92FF920F931F93CF93DF93CDB764
:103D3000DEB7CA1BDB0B0FB6F894DEBF0FBECDBFDC
:103D400009942A88398848885F846E847D848C84AD
:103D50009B84AA84B984C884DF80EE80FD800C81B6
:103D60001B81AA81B981CE0FD11D0FB6F894DEBF99
:103D70000FBECDBFED01089511E0CCE1D1E004C04C
:103D8000FE010E94AB1B2296CE31D107C9F7F894F1
:023D9000FFCF63
:103D92000000FB058000FFFFFFFF494F20496E69CD
:103DA200742E2E2E004C6F6164696E672066696CFA
:103DB2006569642066726F6D20454550524F4D0013
:103DC2004C6F616465643A200057726974696E676A
:103DD200206E657720636F756E74657220737461EF
:103DE2007475730050617273652E2E2E2E004C4135
:103DF200543D004C4F4E473D00414C543D00534111
:103E020054533D005354414D503D00000000001CEE
:103E1200037F158803FB026E03A0034750524D43F4
:103E2200004750474741004E004E4E4500454E4523
:103E32000045534500535345005300535357005711
:103E4200535700574E57004E4E570000000000597E
:103E5200107F150D0A006E616E00696E66006F7646
:103E62006600000000005D187F15DF17F817EA17DB
:023E72003B18FB
:00000001FF
