:100000000C9414010C943C010C943C010C94ED05EF
:100010000C94ED050C94ED050C943C010C943C0102
:100020000C943C010C943C010C943C010C943C015C
:100030000C943C010C943C010C943C010C943C014C
:100040000C94951F0C943C010C9471200C94A320EB
:100050000C943C010C943C010C943C010C943C012C
:100060000C943C010C943C01AF0BBC0BC00BC60BB9
:10007000CC0BE10BEA0BF10BF60BFC0BFC0BFC0BB6
:10008000FC0BFC0BFC0BFC0BFC0BFC0BFC0BFC0B38
:10009000FC0BFC0BFC0BFC0BFC0BFC0BFC0BFC0B28
:1000A000FC0BFC0BFC0BFC0BAF0BB50BBC0BC00B28
:1000B000C60BCC0BD20BD60BDB0B7C3C3E5E2B3D38
:1000C0003F2F5B5D3B2C2A225C00000000080002F1
:1000D000010000030407000000000000000001020E
:1000E00004081020408001020408102001020408C6
:1000F00010200404040404040404020202020202A4
:10010000030303030303000000002300260029006B
:1001100000000000250028002B0000000000240043
:1001200027002A0000407A10F35A00A0724E1809E6
:100130000010A5D4E80000E87648170000E40B544E
:10014000020000CA9A3B000000E1F505000080961D
:100150009800000040420F000000A086010000004F
:10016000102700000000E803000000006400000009
:1001700000000A00000000000100000000002C76D2
:10018000D888DC674F0823DFC1DFAE59E1B1B796ED
:10019000E5E3E453C63AE651997696E8E6C284264A
:1001A000EB898C9B62ED407C6FFCEFBC9C9F40F226
:1001B000BAA56FA5F490055A2AF75C936B6CF967A2
:1001C0006DC11BFCE0E40D47FEF520E6B500D0ED67
:1001D000902E0300943577050080841E08000020CF
:1001E0004E0A000000C80C333333330F986E12836D
:1001F0001141EF8D2114893BE65516CFFEE6DB1841
:10020000D1844B381BF77C1D901DA4BBE424203205
:1002100084725E228100C9F124ECA1E53D277F02B2
:100220009D0EF71ED3208E0211241FBECFEFD8E003
:10023000DEBFCDBF12E0A0E0B1E0E0E0FEE502C02D
:1002400005900D92AC32B107D9F726E0ACE2B2E0EE
:1002500001C01D92A437B207E1F712E0C6E2D2E076
:1002600004C02297FE010E947626CE31D107C9F73D
:100270000E9417210C94F32E0C940000CF93DF936F
:10028000EC01CB01FB01228133813B832A83448132
:100290005581668177814C835D836E837F83408542
:1002A000518562857385488759876A877B8729EFDF
:1002B00031E0398328832DE03C96DE011C960190C5
:1002C0000D922A95E1F7FC01818D928D9A8F898F8D
:1002D000DF91CF9108951F93CF93DF93EC01162FF9
:1002E000672F0E94A22B612FCE010196DF91CF9143
:1002F0001F910C94A22B1F93CF93DF93EC010E94CC
:100300009A2B182FCE0101960E949A2B212F30E0B4
:10031000322F2227A901480F511DCA01DF91CF9129
:100320001F91089526E040E052EC61E070E083ED1B
:1003300095E00E94512440E855E260E070E081E6DB
:1003400092E00E94F00664E170E080E090E00E949C
:100350000E206AE071E083ED95E00E945C2361E08D
:1003600083E10E94261F61E081E10E94261F61E077
:100370008FE00E94261F61E08EE00E94261F61E050
:1003800083E10E945F1F61E081E10E945F1F61E0E5
:100390008FE00E945F1F61E08EE00E945F1F64EFAC
:1003A00071E080E090E00E940E2060E083E10E9416
:1003B0005F1F60E081E10E945F1F60E08FE00E94AC
:1003C0005F1F60E08EE00E945F1F65E171E083EDDA
:1003D00095E00E945C2380E390E00E947B010196FF
:1003E000909339028093380260E371E083ED95E0E9
:1003F0000E945623809139028F93809138028F9307
:1004000089E391E09F938F938CE292E09F938F9387
:100410000E94A6296CE272E083ED95E00E945623CB
:100420006EE371E083ED95E00E945C2363E471E08C
:1004300083ED95E00E945C2360913802709139024F
:1004400080E390E00E946B016EE571E083ED95E042
:100450000E945C2381E08093360261E083E10E9488
:100460005F1F0F900F900F900F900F900F9062E012
:1004700085E793E00E94F60C81110DC061E771E001
:1004800083ED95E00E945C2368EE73E080E090E0ED
:100490000E940E20ECCF64E670E080E090E00E94C5
:1004A0000E201092360260E083E10E945F1F6BE72E
:1004B00071E083ED95E00C945C230F931F93CF9331
:1004C000DF938C01EB010E94482363E971E0C801CE
:1004D0000E945623BE0183ED95E00E94482363E904
:1004E00071E083ED95E0DF91CF911F910F910C9416
:1004F00056230E94582383ED95E00C94582380E8FE
:1005000092E00E947E0720E044E063E081E692E012
:100510000E94C00686E492E00C947E0F81E692E091
:100520000C946706CF92DF92EF92FF921F93CF93C6
:10053000DF93CDB7DEB7A7970FB6F894DEBF0FBE37
:10054000CDBFC0904202D0904302E0904402F090B0
:10055000450284EFC80E81E0D81EE11CF11C0E9408
:10056000DF1FC616D706E806F906E8F40E94DF1F6B
:100570006093420270934302809344029093450239
:100580006091370281E10E945F1F109237026091F3
:10059000360283E10E945F1F609135028FE00E9466
:1005A0005F1F10923502C0903E02D0903F02E09053
:1005B0004002F0904102E6E9CE0ED11CE11CF11C94
:1005C0000E94DF1FC616D706E806F90638F46091C8
:1005D00034028EE00E945F1F1092340211E081E627
:1005E00092E00E948705892BA1F081E692E00E94AB
:1005F000FA04682F80E892E00E94380C882379F38F
:100600001093370267E971E083ED95E00E945C2367
:10061000E6CF80913702882309F4DEC1C0903A0208
:10062000D0903B02E0903C02F0903D02F8EECF0EFD
:10063000F3E0DF1EE11CF11C0E94DF1FC616D70687
:10064000E806F90608F0C8C10E94DF1F60933A026D
:1006500070933B0280933C0290933D026CE272E007
:10066000CE0182960E949421BE016E5D7F4FCE0125
:100670004C960E94C1216EE371E0CE014C960E941F
:10068000F022FC014081518123E165E773E0CE0156
:1006900001960E940F0E8B819C819093490280935A
:1006A00048028D819E81AF81B88580934A029093E4
:1006B0004B02A0934C02B0934D0289859A85AB857D
:1006C000BC8580934E0290934F02A0935002B0934A
:1006D00051028DE0FE013D96A2E5B2E001900D923F
:1006E0008A95E1F78A8D9B8D9093600280935F02DB
:1006F000CE014C960E942621CE0182960E94262190
:1007000086E492E00E94F20F882309F45CC1109203
:10071000360280918002882319F081E080933502AF
:1007200081E08093340261E08EE00E945F1F82EAE4
:1007300092E00E94C6094AE0BC01CE014C960E949C
:100740003B2266E472E0CE0101960E943E01BE01AA
:10075000645E7F4FCE0101960E945D02CE014C96F1
:100760000E94262182EA92E00E94D6094AE0682F80
:10077000CE014C960E94E22166E472E0CE01019621
:100780000E943E01BE01645E7F4FCE0101960E9431
:100790005D02CE014C960E94262182EA92E00E94E0
:1007A000F5094AE0682FCE014C960E94E22166E4EA
:1007B00072E0CE0101960E943E01BE01645E7F4F51
:1007C000CE0101960E945D02CE014C960E94262128
:1007D00080EB92E00E94030A4AE0682FCE014C961B
:1007E0000E94E22166E472E0CE0101960E943E0181
:1007F000BE01645E7F4FCE0101960E945D02CE0174
:100800004C960E94262180EB92E00E94110A4AE059
:10081000682FCE014C960E94E22166E472E0CE0180
:1008200001960E943E01BE01645E7F4FCE0101969B
:100830000E945D02CE014C960E94262180EB92E040
:100840000E94270A4AE0682FCE014C960E94E221BE
:1008500066E472E0CE0101960E943E01BE01645E34
:100860007F4FCE0101960E945D02CE014C960E9400
:1008700026216091800270E04AE0CE014C960E94F1
:100880000F2266E472E0CE0101960E943E01BE0195
:10089000645E7F4FCE0101960E945D02CE014C96B0
:1008A0000E94262180E892E00E942609AB01BC014B
:1008B00027E0CE014C960E94942266E472E0CE01BD
:1008C00001960E943E01BE01645E7F4FCE010196FB
:1008D0000E945D02CE014C960E94262180E892E0A3
:1008E0000E945209AB01BC0127E0CE014C960E9448
:1008F000942266E472E0CE0101960E943E01BE01A0
:10090000645E7F4FCE0101960E945D02CE014C963F
:100910000E9426211092DB026091E0027091E102B8
:100920008091E2029091E3020E94832520E030E072
:1009300048EC52E40E941925AB01BC0122E0CE0133
:100940004C960E94942266E472E0CE0101960E94C9
:100950003E01BE01645E7F4FCE0101960E945D02A2
:10096000CE014C960E9426211092E9024091EE029F
:100970005091EF026091F0027091F1022AE0CE01F5
:100980004C960E94672266E472E0CE0101960E94B6
:100990003E01BE01645E7F4FCE0101960E945D0262
:1009A000CE014C960E94262166E472E0CE010196AB
:1009B0000E943E01CE0101960E94790286E492E0F7
:1009C0000E94E00F09C081E08093360261EA71E085
:1009D00083ED95E00E945C23A7960FB6F894DEBFE6
:1009E0000FBECDBFDF91CF911F91FF90EF90DF90B1
:1009F000CF90089520916F03309170032817390725
:100A0000B9F490912D0380912E03981789F0E0910D
:100A10002D03F0E0E15DFC4F808120912D0330E05B
:100A20002F5F3F4F2F73332720932D0390E00895BE
:100A30008FEF9FEF08951F93CF93DF93DC015C96B8
:100A40008D919C915D97009749F481E090E0139619
:100A50009C938E93129780E090E03BC05196ED916D
:100A6000FC91529750962C915097322F30951FB78A
:100A70005E964C915E9741FB772770F941FD60953A
:100A8000F8944081772311F0422B01C04323408327
:100A9000EC012197F1F748E0508160FF02C0522B32
:100AA00001C053235083EC012197F1F76695415023
:100AB00099F78081772311F0832301C0822B8083F3
:100AC0001FBF5C968D919C915D970197F1F781E036
:100AD00090E0DF91CF911F91089520916F033091A5
:100AE00070032817390781F490912D0380912E030C
:100AF000981751F0E0912D03F0E0E15DFC4F80810B
:100B0000992787FD909508958FEF9FEF0895209185
:100B10006F03309170032817390771F480912E0309
:100B200020912D0390E0805C9F4F821B910960E42F
:100B300070E00E941F26089580E090E008952091C3
:100B40006F03309170032817390739F48FB7F89481
:100B500010922E0310922D038FBF0895E0916F0322
:100B6000F0917003E817F90769F4A389B4899C919F
:100B70008589809589238C931092700310926F035E
:100B800081E0089580E00895CF93DF93EC018A8D92
:100B90009B8D892BF1F080916F03909170038C17DE
:100BA0009D07B9F0009711F00E94AE058E8D8E7FE3
:100BB0008E8F10922E0310922D03D0937003C0934A
:100BC0006F03EB89FC8980819D89892B808381E07B
:100BD00001C080E0DF91CF9108951F920F920FB670
:100BE0000F9211242F933F934F935F936F937F93B3
:100BF0008F939F93AF93BF93EF93FF93E0916F0316
:100C0000F0917003309709F451C0868DA685B785A1
:100C1000958581FF04C08C91892329F447C08C916C
:100C2000892309F043C0A389B4899C918589809563
:100C300089238C93868997890197F1F7208D318DCF
:100C4000A685B785758558E040E0C9010197F1F7A1
:100C5000842F90E095958795482F6C91672309F034
:100C60004068515091F7868D81FD409580912E030B
:100C700090E001968F73992720912D03281749F052
:100C8000A0912E03B0E0A15DBC4F4C9380932E0346
:100C900003C0868D8160868F828D938D0197F1F7D9
:100CA000A389B4898C919589892B8C93FF91EF91BD
:100CB000BF91AF919F918F917F916F915F914F9174
:100CC0003F912F910F900FBE0F901F90189527EB1B
:100CD00031E0FC01318320830C94AE051F93CF9348
:100CE000DF93EC01162F6E8D6695617081E06827A9
:100CF000812F0E945F1F61E0812F0E94261F812F9C
:100D000090E0FC01E252FF4FE491E88BFC01EE50D1
:100D1000FF4FE491F0E0EE0FFF1FE05FFE4F859183
:100D200094919A8B898BDF91CF911F9108951F9396
:100D3000CF93DF93EC01162F60E0812F0E94261FD6
:100D40008E8D81FD04C061E0812F0E945F1F1C8792
:100D5000812F90E0FC01E252FF4FE491ED87FC010E
:100D6000EE50FF4FE491F0E0EE0FFF1FEA5FFE4F01
:100D7000859194919F878E87DF91CF911F910895E0
:100D8000FF920F931F93CF93DF93EC01F62E522F18
:100D90001B821A8208EE13E020E030E00C831D83F2
:100DA0002E833F8387EB91E0998388831F8A1E8A75
:100DB000198E188E1B8E1A8E1D8E1C8E8E8D8E7F18
:100DC00050FB81F98E8F642FCE010E946E066F2D2D
:100DD000CE01DF91CF911F910F91FF900C94970658
:100DE000CF93DF93EC019A01AB011B8E1A8E198E03
:100DF000188E1F8A1E8A60E079E08DE390E00E94E1
:100E00005526C9012430310520F0B901635071091C
:100E100002C061E070E07D8F6C8FEC85E63108F0F8
:100E200068C0B901769567956431710518F0635112
:100E3000710902C061E070E07F8B6E8B069718F03D
:100E4000C901059702C081E090E0998F888FC901A0
:100E5000880F991F820F931F969587959695879572
:100E60008D30910510F00C9702C081E090E09B8FCF
:100E70008A8F20916800E83050F091E0EE3008F45D
:100E800090E081E001C0880F9A95EAF701C084E004
:100E9000822B809368002C85283038F02E3040F06B
:100EA000263148F48CE690E008C08DE690E005C05D
:100EB0008BE690E002C080E090E09C8B8B8B28302A
:100EC00030F481E001C0880F2A95EAF70DC0822F27
:100ED00090E02E3010F4089701C00E9791E001C009
:100EE000990F8A95EAF7892F8D8B8C8D9D8D0197AF
:100EF000F1F7CE01DF91CF910C94C405FC01108273
:100F00001182138212821482158216821782108631
:100F10001286118613861486158616861786118A00
:100F2000108A128A138A148A158A168A108E178AD2
:100F3000118E128E138E148E158E12A213A214A26D
:100F400015A216A217A210AA11AA12AA13AA14AACD
:100F500015AA16AE17AEDC01AC5BBF4F1D921D92F9
:100F60001D921C92139718961C9211961C92119721
:100F700016961D921D921D921C9219971E961C92F8
:100F800011961C92119716961D921D921D921C92FD
:100F900019971E961C9211961C92119716961D92E7
:100FA0001D921D921C9219971E961C9211961C92CE
:100FB000119716961D921D921D921C9219971E96BE
:100FC0001C9211961C92509682E08C9311961C9262
:100FD00011961C9211961C92119611961C921E92BB
:100FE000129611961C921E9212961D921D921D929F
:100FF0001C92139714961D921D921D921C9213978A
:1010000014961D921D921D921C92139714961D9278
:101010001D921D921C921397EA57FF4F108208955C
:101020002FEB260F862F992787FD9095263010F4F9
:10103000C79708956156663018F487559109089549
:10104000C0970895FF920F931F93CF93DF93EC0106
:10105000FF24F39488818D3211F0F12C01C0219688
:10106000CE010E94C2289B01AC01A4E6B0E00E9420
:101070007A26FE014991242F332727FD30952053EE
:1010800031092A303105A8F34E3241F52181332749
:1010900027FD3095205331092A303105F8F44AE014
:1010A000429F8001439F100D1124222717FD209598
:1010B000322F600F711F821F931F0281112707FDBE
:1010C0001095005311090A30110540F4222717FD2D
:1010D0002095322F600F711F821F931FFF2039F060
:1010E00090958095709561957F4F8F4F9F4FDF91C1
:1010F000CF911F910F91FF9008952F923F924F92A1
:101100005F926F927F928F929F92AF92BF92CF9297
:10111000DF92EF92FF920F931F93CF93DF93D82F1D
:10112000C92F8B010E94C22824E630E040E050E045
:101130000E94332649015A019B01AC0160E876E91F
:1011400088E990E00E940F266B017C01F8019182F2
:101150008082ED2FFC2F2191822F992787FD90957A
:10116000C0970A97C0F32E3239F51F0180E8882E08
:1011700086E9982E88E9A82EB12C9AE0492E512CA8
:10118000612C712CF101C1911F01DD27C7FDD095A4
:10119000E097CA30D10580F4C501B401A3019201E2
:1011A0000E94332649015A01DE010E948526C60E9F
:1011B000D71EE81EF91EE6CFA5E0B0E0A701960114
:1011C0000E947A266F5F7F4F8F4F9F4F23E030E062
:1011D00040E050E00E943326F801228333834483A9
:1011E00055831682DF91CF911F910F91FF90EF9061
:1011F000DF90CF90BF90AF909F908F907F906F9037
:101200005F904F903F902F900895CF93DF93EC0124
:1012100087E0FE017096DE01129601900D928A958C
:10122000E1F787E0FE017796DE01199601900D92B5
:101230008A95E1F70E94DF1F6E8F7F8F88A399A3A5
:1012400081E089838883DF91CF910895CF92DF92E7
:10125000EF92FF92CF93DF93EC0119826A817B8139
:1012600080E090E00E9481256B017C016C817D8192
:101270008E819F810E94812528E23BE64EE65EE456
:101280000E9419259B01AC01C701B6010E94B5243B
:10129000288521119058DF91CF91FF90EF90DF903A
:1012A000CF900895CF92DF92EF92FF92CF93DF938A
:1012B000EC01198269857A8580E090E00E948125A1
:1012C0006B017C016B857C858D859E850E948125C7
:1012D00028E23BE64EE65EE40E9419259B01AC0144
:1012E000C701B6010E94B5242F8521119058DF91C6
:1012F000CF91FF90EF90DF90CF900895CF93DF9341
:10130000EC014E815F81688579854A835B836C83BC
:101310007D830E94DF1F6A877B878C879D8781E0A2
:1013200089838883DF91CF910895CF93DF93EC0178
:101330004E815F81688579854A835B836C837D8379
:101340000E94DF1F6A877B878C879D8781E0898366
:101350008883DF91CF910895CF93DF93EC01CB0188
:101360000E9422086E837F8388879987DF91CF91BF
:101370000895CF93DF93EC01CB010E94C2286E83C6
:101380007F8388879987DF91CF910895FC0111822F
:10139000628173818481958124E630E040E050E0F1
:1013A0000E943326CB018053984F0895CF92DF924D
:1013B000EF92FF92FC011182628173818481958199
:1013C00034E6C32ED12CE12CF12CA70196010E940A
:1013D0003326CA01B901A70196010E943326862F40
:1013E000FF90EF90DF90CF900895FC011182628111
:1013F00073818481958120E137E240E050E00E94D2
:101400003326822F0895FC011182628173818481C9
:10141000958120E432E44FE050E00E943326822F91
:101420000895FC011182628173818481958120E19C
:1014300037E240E050E00E943326CA01B90124E6B9
:1014400030E040E050E00E943326862F0895CF928E
:10145000DF92EF92FF92FC0111826281738184819D
:10146000958144E6C42ED12CE12CF12CA7019601E4
:101470000E943326CA01B901A70196010E943326B2
:10148000862FFF90EF90DF90CF900895CF93DF935A
:10149000EC014A855B856C857D854E835F8368871B
:1014A00079870E94DF1F6A837B838C839D8381E021
:1014B00089838883DF91CF910895CF93DF93EC01E7
:1014C000CB010E9422086A877B878C879D87DF91EA
:1014D000CF910895CF93DF93EC014A855B856C85AE
:1014E0007D854E835F83688779870E94DF1F6A83CB
:1014F0007B838C839D8381E089838883DF91CF9177
:101500000895CF93DF93EC01CB010E94C2286A8734
:101510007B878C879D87DF91CF910895CF93DF9351
:10152000EC01BC0140960E9413290E94DF1F68A3B2
:1015300079A38AA39BA381E08DA38CA3DF91CF9194
:10154000089540E150E00C941A29AF92BF92CF92D7
:10155000DF92FF920F931F93CF93DF93EC01FC0177
:10156000EB57FF4FF080FF2009F49CC0319660815B
:101570000E941008182FFE01E957FF4F6081CE012D
:101580000E94100840E1149F800D1124FE01EC57C9
:10159000FF4F9081891376C0B59640815181628159
:1015A00073814F5F5F4F6F4F7F4F408351836283E3
:1015B00073838E0108561F4FD8018C91882369F0E0
:1015C000389740815181628173814F5F5F4F6F4FC8
:1015D0007F4F4083518362837383FE01EB56FF4F3D
:1015E00080818823C9F0813089F5CE0182960E94DE
:1015F0007E09CE01C0960E949509F801808188235A
:1016000029F1CE010E940509CE01CE960E94460A1C
:10161000CE01845B9F4F18C0CE01C0960E949509F1
:10162000D8018C91882341F0CE010E940509CE019A
:10163000865A9F4F0E94460ACE0188599F4F0E94AA
:101640006A0ACE018A589F4F0E94460A8E010556AB
:101650001F4FF801C081D181209709F4FEC0D80145
:10166000ED91FC9166A177A18EA19FA10E940A290C
:10167000892B09F0F2C0CE010E948E0A0AA4DBA5D4
:10168000C02DEACFCB55DF4F488159816A817B81DC
:101690004F5F5F4F6F4F7F4F488359836A837B83D0
:1016A000F12CDBC06C01B6E9CB0ED11CF601308108
:1016B0008B569F4F5C018E0105561F4F311134C070
:1016C0006E0196E8C90ED11C63EC71E0C6010E9460
:1016D0000A29892B11F481E00BC069EC71E0C60185
:1016E0000E940A29892B19F4F501108203C082E0B7
:1016F000D5018C93C756DF4F88819981F80191837A
:101700008083F801C081D181209709F4A6C0B60179
:101710008EA19FA10E940A2997FF9AC08AA59BA526
:10172000D8018D939C93EDCFDC01EC91E23009F46C
:1017300063C0CE018A579F4FDC012C91222309F40C
:101740005BC0B0E2EB9FF0011124E32B3197E9324B
:10175000F10508F051C0EC5CFF4F0C947426BC01FD
:10176000CE01C0960E94AC0947C0FE01E856FF4F6B
:1017700081E0213461F52CC0BE01605F7F4F09C05C
:1017800081E0233509F080E08E8B36C0BE01695EB2
:101790007F4F0E947D0830C081E0273509F080E04E
:1017A0008D8F2AC0BC01CE01CE9624C0BC01CE01D3
:1017B000845B9F4F1FC0BC01CE0182960E94B90975
:1017C0001BC0FE01E856FF4F81E021330CF480E09E
:1017D000808312C0BC01CE0188599F4F0E94810AAC
:1017E0000BC0BC01CE018A589F4F04C0BC01CE0182
:1017F000865A9F4F0E945D0AF801A080B180CA57A7
:10180000DF4FA114B10449F1D801ED91FC9166A11B
:1018100077A1F50186A197A10E940A29892BE9F4F5
:10182000D50198962D913C919997F601808190E091
:101830008217930794F02817390721F4BE01C501D8
:101840000E94A10AD5019A96AD90BC909B97D9CFE2
:10185000892B19F0D8011D921C928F2DDF91CF9109
:101860001F910F91FF90DF90CF90BF90AF900895A0
:10187000CF92DF92EF92FF920F931F93CF93DF935C
:101880001F92CDB7DEB76C01262FFC01E356FF4F48
:1018900040815181628173814F5F5F4F6F4F7F4FF6
:1018A00040835183628373838C0109561F4F8B578A
:1018B0009F4F7C01243279F12CF42A3069F02D30CD
:1018C000E1F50AC02A3241F02C32B9F5F601EC57A5
:1018D000FF4F808182278083F80180818F3060F400
:1018E000F601E80FF11DEA57FF4F1082C601298368
:1018F0000E94A50A298101C080E0F601EA56FF4F47
:1019000090819F5F9083F801108291E02A3209F064
:1019100090E0F70128C0F8011082F601EA56FF4F67
:10192000108272971082719682E08083F701108294
:10193000F601E856FF4F108218C0F80180818E3002
:1019400048F491E0980F9083F601E80FF11DEA57F3
:10195000FF4F2083F7018081811107C0F601EC570A
:10196000FF4F90819227908301C080E00F90DF911C
:10197000CF911F910F91FF90EF90DF90CF9008953E
:10198000CF93CFB7F89480917403811127C0ECEF07
:10199000F0E08491E8EEF0E09491E82FF0E0EE0FB3
:1019A000FF1FE65EFE4FA591B4918C91892321F42F
:1019B00061E08AE00E945F1F61E08AE00E94261FCA
:1019C0008CB580618CBD8CB580648CBD61E08DE090
:1019D0000E94261F61E08BE00E94261F8091740305
:1019E0008F5F80937403CFBFCF9108950F931F93A0
:1019F000CF93DF93EC01462F61E00E94EF1C811131
:101A000002C080E01DC08E01045F1F4F41E0BE0197
:101A1000C8010E949613882359F0B801CE018A9616
:101A20000E94861591E0811101C090E0892F08C0C5
:101A300040E0BE01C8010E949613882311F3EDCF48
:101A4000DF91CF911F910F910895FC01DB01129658
:101A50008D919C9113979383828389E092E0918387
:101A6000808314968C911497848315968C91159786
:101A7000858316964D915D916D917C911997468362
:101A80005783608771871A964D915D916D917C9116
:101A90001D9742875387648775871E964D915D9188
:101AA0006D917C91519746875787608B718B5296C9
:101AB0008C915297828B53964D915D916D917C9153
:101AC0005697438B548B658B768B57964D915D91D2
:101AD0006D917C915A97478B508F618F728F5B9677
:101AE0008D919C915C97948F838F08954F925F9214
:101AF0006F927F928F929F92AF92BF92CF92DF921E
:101B0000EF92FF920F931F93CF93DF93CDB7DEB782
:101B1000C754D1090FB6F894DEBF0FBECDBF6C011C
:101B20004A013901665D7F4F5E018EE1A80EB11C4E
:101B3000C5010E94250D1C821B8289E092E09A83D8
:101B400089831E828401FE0131967F015A2C4B2C21
:101B50006FE270E0C8010E94FF280097E9F1F801E8
:101B600020812F3219F40F5F1F4FF2CF801B8D3071
:101B700008F08CE0A82EB12CA501B801CE01CB96BF
:101B80000E941A29EBE3F0E0EC0FFD1FEA0DFB1DAC
:101B90001082C7010E940C1821E0AE01455C5F4F26
:101BA000652D742DC7010E944019811109C0F601ED
:101BB0001382128289E092E091838083158216C09D
:101BC0000A0D1B1D852D942D0E940C18C2015E2C40
:101BD0004F2CE92EF82EBCCF08191909F3011183F7
:101BE0000083652D742DC6010E94250DC601C95BB9
:101BF000DF4F0FB6F894DEBF0FBECDBFDF91CF91A0
:101C00001F910F91FF90EF90DF90CF90BF90AF901A
:101C10009F908F907F906F905F904F9008959F92CC
:101C2000AF92BF92CF92DF92EF92FF920F931F93EA
:101C3000CF93DF93CDB7DEB7C955D1090FB6F8946E
:101C4000DEBF0FBECDBF7C016B015A01922E9E01FB
:101C5000285A3F4FCE01CB960E94760D6A960EAD64
:101C60001FAD6A970A0D1B1DF801808181110AC002
:101C7000BE01655C7F4FCE0101960E94250D43EFAA
:101C800051E041C019A218A289E092E09F8F8E8F87
:101C90001BA221968FAD2197811104C0C7010E941C
:101CA0007E0F37C08250823060F4B601665D7F4F90
:101CB000292DA801CE014E960E944019811110C015
:101CC000EDCF292DA801BE01655C7F4FCE014E9658
:101CD0000E944019882311F3CE01CB960E940C1864
:101CE000892D867041F049A95AA96BA97CA9CE011A
:101CF0004E960E942917BE01625E7F4FCE0101966B
:101D00000E94250DA801BE016F5F7F4FC7010E9491
:101D1000450FC701C75ADF4F0FB6F894DEBF0FBE9D
:101D2000CDBFDF91CF911F910F91FF90EF90DF908A
:101D3000CF90BF90AF909F90089510927A03109229
:101D40007B0310927E031092800382E090E0A0E07B
:101D5000B0E08093810390938203A0938303B093B8
:101D60008403109298031092A2031092A10389E0B9
:101D700092E09093A00380939F031092A403089590
:101D8000CF93DF931F92CDB7DEB76983DC01ED916E
:101D9000FC910280F381E02D41E050E0BE016F5FD5
:101DA0007F4F09950F90DF91CF910895CF93DF93E7
:101DB000EC01898D9A8D009759F0FC0113821282F3
:101DC0000E94251AE98DFA8D22813381232B31F06F
:101DD00081E090E09B838A8380E090E0DF91CF9167
:101DE0000895FC01818D928D009711F00C94C51718
:101DF0000895CF93DF931F92CDB7DEB741E050E057
:101E0000BE016F5F7F4F0E94D615019719F489813B
:101E100090E002C08FEF9FEF0F90DF91CF91089578
:101E2000FC01818D928D009711F00C94F90E8FEFCB
:101E30009FEF08950F931F93CF93DF938C01FC01C5
:101E4000818D928D0097B9F00E94F90EEC018F3FC1
:101E5000FFEF9F0799F0F801818D928DFC0142857B
:101E600053856485758541505109610971090E9446
:101E70002917CE0105C080E090E002C08FEF9FEFF0
:101E8000DF91CF911F910F910895CF92DF92EF9242
:101E9000FF920F931F93CF93DF93EC017B016A01B5
:101EA0001B821A8208EE13E020E030E00C831D83D1
:101EB0002E833F8389EF91E0998388838DE190E0C1
:101EC0000E94D1269A8F898F009779F02DE1F70132
:101ED000DC0101900D922A95E1F74CE050E0B6014B
:101EE000CE010C960E941A29188EDF91CF911F9176
:101EF0000F91FF90EF90DF90CF900895FC01138237
:101F0000128248EE53E060E070E0448355836683BC
:101F1000778389EF91E091838083128E118E1486EE
:101F20000895DC015996ED91FC915A97309729F06C
:101F3000628573858485958508956FEF7FEFCB016A
:101F40000895DC015996ED91FC915A97309729F04C
:101F50006389748985899689089560E070E0CB0172
:101F60000895CF92DF92EF92FF92CF93DF93EC012F
:101F7000898D9A8D892BD9F0CE010E94A10F6B011A
:101F80007C01CE010E94910FA7019601261B370B01
:101F9000480B590BDA01C901811530E89307A105F7
:101FA000B10538F08FEF9FE7A0E0B0E002C080E01D
:101FB00090E0DF91CF91FF90EF90DF90CF90089568
:101FC000CF93DF93EC01898D9A8D009741F00E94A9
:101FD0000C18898D9A8D0E9469271A8E198EDF91AF
:101FE000CF910895DC015996ED91FC915A97309765
:101FF00021F081E09581911101C080E008958091E8
:10200000C203882399F14091060150910701609124
:1020100008017091090125EC33E08091C303909190
:10202000C4030E94A91E882319F14091BE03509158
:10203000BF036091C0037091C10341155105610553
:10204000710591F025EC33E08091C3039091C403B6
:102050000E94A91E882361F01092BE031092BF0354
:102060001092C0031092C1031092C20381E0089540
:1020700080E00895CF92DF92EF92FF92CF936B01B1
:102080007C01C42F8091060190910701A091080165
:10209000B09109018C159D05AE05BF05D1F00E94D8
:1020A000FF0F811102C080E01AC025EC33E0B701B8
:1020B000A6018091C3039091C4030E94561E8823F9
:1020C00091F3C0920601D0920701E0920801F092CC
:1020D00009018091C2038C2B8093C20381E0CF91D0
:1020E000FF90EF90DF90CF900895CF92DF92EF9224
:1020F000FF926B017C010E94FF0F8823B1F0E5EC99
:10210000F3E0119285E0E53CF807D9F7C0920601AB
:10211000D0920701E0920801F09209018091C20378
:1021200081608093C20381E001C080E0FF90EF9066
:10213000DF90CF9008958F929F92AF92BF92CF92EF
:10214000DF92EF92FF920F931F93CF93DF938C0157
:102150006A017B01E901FC0181859285A385B48533
:102160000196A11DB11D84179507A607B70710F4A6
:1021700080E058C0F8014389548965897689878948
:10218000803129F4BB27AF2D9E2D8D2D09C0D7019D
:10219000C60127E0B695A795979587952A95D1F71B
:1021A0004C015D01840E951EA61EB71EC501B4012B
:1021B0008090060190900701A0900801B09009015D
:1021C000681579058A059B0589F4F80187898031AE
:1021D00099F4DD24EE24FF24F601EE0FFF1FEB53EC
:1021E000FC4F80819181A0E0B0E017C040E00E94E8
:1021F0003A108111EACFBCCFE894C7F8DD24EE2471
:10220000FF24F601EE0FFF1FEE0FFF1FEB53FC4FF5
:1022100080819181A281B381BF7088839983AA83D1
:10222000BB8381E0DF91CF911F910F91FF90EF90E1
:10223000DF90CF90BF90AF909F908F9008954F9276
:102240005F926F927F92AF92BF92CF92DF92EF92A6
:10225000FF920F931F93CF93DF9300D000D0CDB7A1
:10226000DEB78C0149835A836B837C835901C12C6F
:10227000D12C7601412C42E0542E612C712C4981E5
:102280005A816B817C819E012F5F3F4FC8010E9464
:102290009B10882359F1D301C201F801058404C0C1
:1022A000880F991FAA1FBB1F0A94D2F7C80ED91E08
:1022B000EA1EFB1E49815A816B817C8187898031AE
:1022C00029F488EF9FEFA0E0B0E004C088EF9FEF13
:1022D000AFEFBFE0481759076A077B0780F2F501A7
:1022E000C082D182E282F38281E001C080E00F905F
:1022F0000F900F900F90DF91CF911F910F91FF9052
:10230000EF90DF90CF90BF90AF907F906F905F90F5
:102310004F9008954F925F926F927F928F929F920B
:10232000AF92BF92CF92DF92EF92FF920F931F93E3
:10233000CF93DF93EC016A017B0128013901423020
:1023400051056105710508F474C049855A856B858E
:102350007C854F5F5F4F6F4F7F4F4C155D056E055E
:102360007F0508F466C08B889C88AD88BE888F89FD
:10237000803129F477276F2D5E2D4D2D09C0B701CF
:10238000A601E7E07695679557954795EA95D1F7C9
:10239000840E951EA61EB71E40910601509107019E
:1023A000609108017091090184169506A606B7068A
:1023B00071F48F89803199F4DD24EE24FF24F60135
:1023C000EE0FFF1FEB53FC4F5182408218C040E0DC
:1023D000C501B4010E943A108111EBCF2AC0E894E4
:1023E000C7F8DD24EE24FF24F601EE0FFF1FEE0FE9
:1023F000FF1FEB53FC4F40825182628273828091B7
:10240000C20381608093C2038A89823080F08D810B
:102410009E81AF81B885880D991DAA1DBB1D809333
:10242000BE039093BF03A093C003B093C10381E0A8
:1024300001C080E0DF91CF911F910F91FF90EF904D
:10244000DF90CF90BF90AF909F908F907F906F90D4
:102450005F904F9008952F923F924F925F926F92AC
:102460007F929F92AF92BF92CF92DF92EF92FF92B4
:102470000F931F93CF93DF93CDB7DEB760970FB65F
:10248000F894DEBF0FBECDBF5C014D875E876F87BE
:10249000788B1901D9014D905D906D907C9041141D
:1024A00051046104710431F0BFEF4B1A5B0A6B0AEF
:1024B0007B0A10C0FC0140805180628073809924A7
:1024C00093940D851E852F853889013011052105CE
:1024D000310509F0912CD50119962D913D914D9121
:1024E0005C911C972F5F3F4F4F4F5F4F29873A8773
:1024F0004B875C87730162011D821E821F821886D2
:10250000F50181859285A385B4850D811E812F817A
:102510003885081719072A073B0708F056C0298590
:102520003A854B855C852C153D054E055F0550F4BD
:10253000A2E0CA2ED12CE12CF12CB2E04B2E512C72
:10254000612C712C9E012F5F3F4FB701A601C50181
:102550000E949B108823C9F149815A816B817C813B
:10256000D701C6010196A11DB11D452B462B472B56
:1025700019F02C013D010FC0AC01BD0144195509F2
:10258000660977090D851E852F8538894017510703
:102590006207730779F02D813E814F8158852F5F47
:1025A0003F4F4F4F5F4F2D833E834F8358876C01C2
:1025B0007D01A6CF0FEF1FEF2FEF3FE0B701A60180
:1025C000C5010E948A11811118C080E041C0D70165
:1025D000C6010197A109B1098D839E83AF83B88796
:1025E00097018601AC01BD01C5010E948A118823B3
:1025F00061F3CD80DE80EF80F8844C145D046E04BE
:102600007F0428F3D1014D915D916D917C9141152D
:1026100051056105710599F4F10140825182628290
:1026200073829920A1F0FFEF4F1A5F0A6F0A7F0AA9
:10263000D5014D925D926D927C92139708C09301E3
:102640008201C5010E948A118111E6CFBECF81E0CF
:1026500060960FB6F894DEBF0FBECDBFDF91CF916D
:102660001F910F91FF90EF90DF90CF90BF90AF90B0
:102670009F907F906F905F904F903F902F90089524
:10268000AF92BF92CF92DF92EF92FF920F931F9380
:10269000CF93DF9300D000D0CDB7DEB75C016A01E5
:1026A0007B0182E090E0A0E0B0E0F50180839183BF
:1026B000A283B3839E012F5F3F4FB701A601C501DF
:1026C0000E949B10882311F100E010E09801B701EF
:1026D000A601C5010E948A118823C1F0C980DA8051
:1026E000EB80FC80F5018789803129F488EF9FEF2A
:1026F000A0E0B0E004C088EF9FEFAFEFBFE0C816E6
:10270000D906EA06FB06B0F281E001C080E00F9036
:102710000F900F900F90DF91CF911F910F91FF902D
:10272000EF90DF90CF90BF90AF9008958F929F92DF
:10273000AF92BF92CF92DF92EF92FF920F931F93CF
:10274000CF93DF93EC01142F7093C4036093C30302
:10275000442341F1453010F080E0EFC040E060E0FC
:1027600070E0CB010E943A108823B1F320E1129F60
:10277000F0011124ED58FA4F80818F7769F7848535
:102780009585A685B78584369105A105B10520F309
:10279000C084D184E284F384C114D104E104F1043F
:1027A00021F4DACFC12CD12C760140E0C701B6016B
:1027B0000E943A10882381F28091D0039091D10336
:1027C0008115924049F63091D503332329F2809147
:1027D000D3039091D403892B09F4BECF2091D20367
:1027E000222309F4B9CF3A8B2C831D8630E041E0D7
:1027F00050E06D85062FCA01062E02C0880F991F72
:102800000A94E2F72817390731F081E0860F8D87A7
:10281000683078F3A1CF2091DB033091DC032115E0
:10282000310519F040E050E008C02091E9033091F3
:10283000EA034091EB035091EC032D833E834F83D9
:1028400058878091D3039091D40346015701880E95
:10285000991EA11CB11C8B8A9C8AAD8ABE8AE0910C
:10286000D603F091D703F98FE88FA091D503B0E09C
:102870000E947A26680D791D8A1D9B1D6A8F7B8FA9
:102880008C8F9D8F15E0EE0FFF1F1A95E1F7E15039
:10289000FE4FEF2FFF27E695DC01CB018E0F9F1F28
:1028A000A11DB11D8E879F87A88BB98B8090D803FF
:1028B0009090D9038114910419F0A12CB12C08C077
:1028C0008090E5039090E603A090E703B090E803C2
:1028D000A7019601281B390B4A0B5B0BDA01C901D2
:1028E000880D991DAA1DBB1D04C0B695A795979587
:1028F00087950A95D2F789879A87AB87BC87853FEA
:102900003FE09307A105B10510F48CE014C0853FAA
:102910009F4FA105B10510F480E10DC08091F10336
:102920009091F203A091F303B091F4038A8F9B8FEF
:10293000AC8FBD8F80E28F8B81E0DF91CF911F91B3
:102940000F91FF90EF90DF90CF90BF90AF909F904E
:102950008F900895CF93DF93EC019C012A5F3F4F46
:1029600041E050E060E070E08B8D9C8D0E942B1266
:102970008823A1F04F89588D698D7A8D452B462B80
:10298000472B71F44E815F81688579854F8B588F15
:10299000698F7A8F8C8180688C8302C080E001C04F
:1029A00081E0DF91CF910895CF92DF92EF92FF9275
:1029B0001F93CF93DF93EC010E94AA14811102C0F0
:1029C00080E04BC0EB8DFC8DCE80DF80E884F98405
:1029D00082E0C81AD108E108F108058404C0CC0CD3
:1029E000DD1CEE1CFF1C0A94D2F7468557856089D2
:1029F0007189C40ED51EE61EF71E148181E0C81A27
:102A0000D108E108F108112361F0C701B601610F97
:102A1000711D811D911D0E947510882389F211502E
:102A2000F2CFEB8DFC8DC12C82E0D82EE12CF12C65
:102A3000058404C0CC0CDD1CEE1CFF1C0A94D2F7EC
:102A40004B895C896D897E894C0D5D1D6E1D7F1DD6
:102A50004B8B5C8B6D8B7E8B81E0DF91CF911F91D7
:102A6000FF90EF90DF90CF900895CF93DF93EC012C
:102A7000462F6E857F85888999890E943A10882320
:102A800041F08A8920E2829FC00111248B539C4F20
:102A900002C080E090E0DF91CF910895282FFB01E4
:102AA0008BE030E231938150E9F7A22FB92F20E07B
:102AB00037E09D91992319F19E3219F0EAEBF0E08D
:102AC00008C03A3011F128E03AE0F3CF31964917C7
:102AD000E1F044914111FACF3217B8F04FED490FB0
:102AE0004E3598F441E0420FFB01E20FF11D2FE952
:102AF000290F2A3108F490529083242FDACF81E0F5
:102B0000FB019081903209F480E008950F931F93A8
:102B1000CF93DF93EC018B018D81882311F080E04E
:102B200040C0FB0187898031B1F482E08D831F8A28
:102B3000188E198E1A8E408D518D60E070E095E0F0
:102B4000440F551F661F771F9A95D1F74B8B5C8BEF
:102B50006D8B7E8B15C0803211F783E08D83FB0176
:102B6000428D538D648D758D4F8B588F698F7A8F01
:102B70009E012D5E3F4FC8010E941F11882379F2EC
:102B80001C8F0B8F81E08C831E821F821886198612
:102B90001A861B861C861D861E861F86188A198A21
:102BA0001A8ADF91CF911F910F9108952F923F9232
:102BB0004F925F926F927F928F929F92AF92BF924D
:102BC000CF92DF92EF92FF920F931F93CF93DF93F9
:102BD000EC016B015A018D81811103C08FEF9FEFD2
:102BE000DAC08C8180FFFACF4B895C896D897E8940
:102BF0008A859B85AC85BD852501612C712C8A0158
:102C00009B01081B190B2A0B3B0B04151505260508
:102C1000370518F45A01A81AB90A25011E0126E041
:102C2000220E311C4114510409F47BC04A855B8596
:102C30006C857D854A0181E09822ED818A019B01A6
:102C4000F9E03695279517950795FA95D1F78B8D6D
:102C50009C8DE23051F4FC01628D738D848D958DD5
:102C6000600F711F821F931F3EC0FC0174807A9415
:102C7000702281149104C9F4711017C0452B462BA2
:102C8000472B49F48F89988DA98DBA8D8E839F83A8
:102C9000A887B9870AC04E815F81688579859101CF
:102CA0000E949B10882309F499CFEB8DFC8D6E81D7
:102CB0007F81888599856250710981099109058410
:102CC00004C0660F771F881F991F0A94D2F70685E4
:102CD000178520893189600F711F821F931F670D2F
:102CE000711D811D911D20E032E028193909320142
:102CF0002415350508F439012C8126FD04C0611422
:102D0000F2E07F06A1F500910601109107012091E4
:102D1000080130910901601771078207930719F4C0
:102D200026C0C50138C0760183019401AB01BC0106
:102D30008091C3039091C4030E94D71D882309F496
:102D40004DCFC60CD71C04C0E81BF90BCE0EDF1EFE
:102D50008A859B85AC85BD85860D971DA11DB11DFE
:102D60008A879B87AC87BD87461857085BCF40E0B2
:102D70000E943A10882309F431CFC4018B539C4F31
:102D8000D6019C01260D371DFC01E217F307E1F285
:102D900041914D93FACFDF91CF911F910F91FF9009
:102DA000EF90DF90CF90BF90AF909F908F907F90EB
:102DB0006F905F904F903F902F900895FF920F93E8
:102DC0001F93CF93DF931F92CDB7DEB78C01FC0129
:102DD0008581823018F480E090E034C0F8014285AB
:102DE000538564857585A5E07695679557954795D4
:102DF000AA95D1F7F42FFF70FF2E41E050E0BE01FD
:102E00006F5F7F4FC8010E94D615019719F4298181
:102E100030E002C02FEF3FEF2F3F3F4FE1F2F801CC
:102E20004285538564857585415E5F4F6F4F7F4F47
:102E30004287538764877587F0E2FF9EC0011124A3
:102E40008B539C4F0F90DF91CF911F910F91FF906B
:102E500008954F925F926F927F92AF92BF92CF92FE
:102E6000DF92EF92FF920F931F93CF93DF93EC01CA
:102E70006A017B012D81222309F457C08B899C892B
:102E8000AD89BE8984179507A607B70708F44DC01A
:102E90004EC08A859B85AC85BD85EB8DFC8DE58517
:102EA000F0E03996AC01BD01415051096109710949
:102EB0000E2E04C076956795579547950A94D2F7DC
:102EC00097018601015011092109310904C0369585
:102ED000279517950795EA95D2F704171507260742
:102EE0003707B0F58F89988DA98DBA8D8E839F8312
:102EF000A887B987280139015E0186E0A80EB11CB8
:102F0000411451046104710461F14E815F8168854F
:102F1000798595018B8D9C8D0E949B1091E0491ABB
:102F20005108610871088111EBCF80E01FC0223089
:102F3000C1F0C114D104E104F10409F0AACF1E824A
:102F40001F82188619861A861B861C861D860DC050
:102F5000892B8A2B8B2B31F2041B150B260B370B7D
:102F6000C9CFCA86DB86EC86FD8681E0DF91CF91F2
:102F70001F910F91FF90EF90DF90CF90BF90AF9097
:102F80007F906F905F904F9008950F931F93CF9312
:102F9000DF93EC018D818823C9F18C8187FF30C0DC
:102FA00061E0CE010E9435158C01009779F18D8189
:102FB000823048F44B895C896D897E89F801448FA1
:102FC000558F668F778F4F89588D698D7A8DF8016F
:102FD000538F428F758B648BE091C505F091C605C8
:102FE000309759F0B8016A5E7F4FC801489609953D
:102FF000F801808D918D938B828B8C818F778C8360
:10300000DF91CF911F910F910C94FF0F80E0DF9122
:10301000CF911F910F910895CF93DF93EC010E9400
:10302000C517882319F01D8281E001C080E0DF917F
:10303000CF9108954F925F926F927F92AF92BF921D
:10304000CF92DF92EF92FF920F931F93CF93DF9374
:1030500000D000D0CDB7DEB75C016A017B01FC0176
:1030600085818130F1F4848181FF1BC0F501838962
:103070009489A589B68984179507A607B70788F0AC
:10308000892B8A2B8B2B09F479C0F5014284538458
:1030900064847584B701A601C5010E9429178111B6
:1030A00002C080E06CC0F501838D948DC114D10401
:1030B000E104F10471F44789508D618D728D0E9495
:1030C0004013882371F3F501178A108E118E128E2A
:1030D0003AC0F50146815781608571859E012F5F59
:1030E0003F4F0E949B108823E1F249815A816B81F6
:1030F0007C81F501838D948DFC012789203129F491
:1031000008EF1FEF20E030E004C008EF1FEF2FEFC3
:103110003FE04017510762077307A8F40E9440136D
:10312000882309F4BECFF5014681578160857185FA
:103130000FEF1FEF2FEF3FE0838D948D0E948A11D8
:10314000882309F4AECFF501C38AD48AE58AF68ACA
:10315000848180688483C5010E94C517882309F48F
:10316000A0CFB701A6014C145D046E047F0410F4D7
:10317000B301A201C5010E94291701C081E00F908F
:103180000F900F900F90DF91CF911F910F91FF90B3
:10319000EF90DF90CF90BF90AF907F906F905F9057
:1031A0004F900895FF920F931F93CF93DF93EC01FD
:1031B000F42E80E2689FF0011124EB53FC4F8385CD
:1031C000817129F0842F827411F080E053C06A8BE2
:1031D0008091060190910701A0910801B091090129
:1031E0008E879F87A88BB98B4489558960E070E0F2
:1031F000BA0155274427028D138D20E030E0402B83
:10320000512B622B732B4F8B588F698F7A8F83854D
:10321000887151F4048D158D268D378D0B8B1C8B89
:103220002D8B3E8B81E00CC0803179F69E012D5EA6
:103230003F4F8B8D9C8D0E941F11882331F284E0BB
:103240008D838F2D8F708C831E821F821886198626
:103250001A861B861C861D86F6FE0BC040E050E0D9
:10326000BA01CE01DF91CF911F910F91FF900C9485
:103270001A1881E0DF91CF911F910F91FF9008956F
:10328000AF92BF92CF92DF92EF92FF920F931F9374
:10329000CF93DF93CDB7DEB72B970FB6F894DEBF91
:1032A0000FBECDBF7C016B01CA01B22EF701258193
:1032B0002111B9C0BE016F5F7F4F0E944E15882358
:1032C00009F4B1C0F601838D948DF701948F838F3B
:1032D000F6011682178210861186128613861486CE
:1032E0001586A12CF60102851385248535858389F1
:1032F0009489A589B689081719072A073B07E8F5B5
:1033000045E036952795179507954A95D1F70F70A3
:10331000C6010E94DE16009709F485C0FC012081D9
:10332000222311F0253EB9F4A1100EC0F701028B43
:1033300040910601509107016091080170910901C7
:1033400046875787608B718BFC018081AA24A394E8
:103350008111C8CF12C04BE050E0BC01CE010196F4
:103360000E94E928892B09F0BDCF8B2D8073803313
:1033700009F459C04B2D602F52C08B2D82718231C0
:1033800009F051C0AA2041F061E0C7010E94351543
:103390008C01009779F447C0F6018581823009F4E9
:1033A00042C0C6010E94D4148823E9F1F701128AB1
:1033B00005EC13E080E2F80111928A95E9F78BE0C1
:1033C000FE013196D80101900D928A95E1F7E091C6
:1033D000C505F091C605309739F0B801625F7F4F9F
:1033E000C8014096099509C081E298E2F801918BE5
:1033F000808B80E098E097878687F80180899189A3
:10340000938B828B918F808F86859785978B868B08
:103410000E94FF0F882339F04B2DF7016289C70105
:103420000E94D21801C080E02B960FB6F894DEBF40
:103430000FBECDBFDF91CF911F910F91FF90EF9005
:10344000DF90CF90BF90AF9008952F923F924F9210
:103450005F926F927F928F929F92AF92BF92CF9224
:10346000DF92EF92FF920F931F93CF93DF9300D0E1
:1034700000D01F92CDB7DEB78C017B013A01DC0191
:1034800015968C9115978130C9F414968C9181FF13
:1034900015C082FF1BC0F80143895489658976896C
:1034A00082859385A485B58584179507A607B707F8
:1034B00069F0C8010E942917811108C081E090E0DD
:1034C000F8019383828380E090E046C1630180C06D
:1034D000D8015B968D919C915C97FC01F481F15031
:1034E000B501A40129E076956795579547952A95EA
:1034F000D1F7F423FD8321E09222FF2309F474C065
:1035000080E092E08819990956018C159D0508F410
:103510005C01D8015B96ED91FC915C9716962D901D
:103520003D904D905C901997B2E02B1A31084108FC
:103530005108058404C0220C331C441C551C0A94F9
:10354000D2F786859785A089B189280E391E4A1E33
:103550005B1EED812E0E311C411C511CA114F2E0AA
:10356000BF0609F088C08091060190910701A091E3
:103570000801B091090182159305A405B50559F418
:103580008FEF9FEFDC018093060190930701A093DA
:103590000801B09309019701B201A1018091C30311
:1035A0009091C4030E94A91E882309F487CF9EEF3F
:1035B000F91ACA18DB08F80182859385A485B585B8
:1035C0008A0D9B1DA11DB11D82879387A487B58796
:1035D000D8011A968D909D90AD90BC901D97C11406
:1035E000D10409F075CF8AC08114910409F088CF05
:1035F00016964D915D916D917C91199741155105EC
:103600006105710559F457968D919D910D90BC916E
:10361000A02D0097A105B10541F521C09E012F5FA6
:103620003F4F0E949B10882309F44ECF89819A81D5
:10363000AB81BC81F801238D348DF90127892031BC
:1036400029F448EF5FEF60E070E004C048EF5FEFFF
:103650006FEF7FE084179507A607B70730F0C80122
:103660000E94AA1481114CCF29CFF8018683978339
:10367000A087B18745CF8114910429F5D8011A9606
:103680004D915D916D917C911D9753968D919D917A
:103690000D90BC91A02D481759076A077B0798F039
:1036A0000E94FF0F882309F409CF2092060130926F
:1036B000070140920801509209018091C203816084
:1036C0008093C20308C041E0C201B1010E943A10D8
:1036D000882309F4F3CEC4018B539C4FD7019C017E
:1036E0002A0D3B1DFC01E217F30719F04D914193A0
:1036F000FACFE81BF90BEE0EFF1E5BCF53968D91B0
:103700009D910D90BC91A02DF801248188159905FB
:10371000AA05BB0538F4838A948AA58AB68A2068EC
:1037200024830CC08091C5059091C605892B31F08A
:103730006114710419F02068F8012483D8011496EB
:103740008C9183FD02C0C30107C0C8010E94C51748
:10375000882309F4B3CEF7CF0F900F900F900F90FE
:103760000F90DF91CF911F910F91FF90EF90DF901D
:10377000CF90BF90AF909F908F907F906F905F9011
:103780004F903F902F900895CF93DF931F92CDB726
:10379000DEB7698341E050E0BE016F5F7F4F0E945A
:1037A000251A0F90DF91CF9108959FB7F89420913B
:1037B000730380917103213019F48DBB9FBF08956D
:1037C0008FBF089520917303222399F03FB7F89497
:1037D00020917303213059F42DB3209371034DB31D
:1037E00020917203209524232DBB3FBF02C030934C
:1037F00071038CBD9DBD08958EBD00000DB407FE04
:10380000FDCF8EB508958FEF0C94FC1B61E0FC0199
:1038100084810E945F1F8091C705882339F0109230
:10382000C7058091730381110C94D51B0895CF9324
:10383000DF93EC018091C705811109C081E080937D
:10384000C7058091C8059091C9050E94E21B60E000
:103850008C81DF91CF910C945F1FCF93DF93EC01AC
:103860008E81882389F08F8198859C012F5F3F4F3F
:1038700038872F838230924018F40E94031CF3CFC4
:10388000CE010E94061C1E82DF91CF910895673001
:1038900028F026E1FC01258380E00895623081F064
:1038A00030F4662359F06130B1F480E515C064301E
:1038B00059F040F0653079F482E50EC080E505C02E
:1038C00081E503C081E508C082E58093C80581E0F9
:1038D0008093C905089583E58093C8051092C905B2
:1038E00081E008950F931F93CF93DF93EB010E9424
:1038F000DF1F8B010E94031C8F3F49F00E94DF1FD6
:10390000601B710B6C177D07A8F380E001C081E09C
:10391000DF91CF911F910F910895CF92DF92FF9287
:103920000F931F93CF93DF9300D000D0CDB7DEB7B6
:103930006C01F62E29833A834B835C830E942D1CF5
:10394000C6010E94171C6CE271E0C6010E94721C45
:103950008F2D80640E94FC1B08E110E05C814B818C
:103960003A812981DA01C901002E04C0B695A795D4
:10397000979587950A94D2F729833A834B835C8382
:103980000E94FC1B0850110929813A814B815C81FE
:10399000083F8FEF180731F7FF2029F0E8E0FE1607
:1039A00021F08FEF03C085E901C087E80E94FC1B6E
:1039B00010E00E94031CF601828787FF04C01F3FAE
:1039C00011F01F5FF6CF0F900F900F900F90DF91C7
:1039D000CF911F910F91FF90DF90CF900895BF92EC
:1039E000CF92DF92EF92FF920F931F93CF93DF93CB
:1039F000EC01B62E1B8619861E821D824C830E9406
:103A0000DF1F8B0161E08C810E94261F61E08C81A9
:103A10000E945F1F0E94C00C82E58093C80510922F
:103A2000C9058091C8059091C9050E94E21B2AE052
:103A3000F22E8FEF0E94FC1BFA94D9F7809173034A
:103A400081110E94D51BCE010E94171C20E030E09E
:103A5000A90160E0CE010E948D1CF82E8A8781E0CA
:103A6000F81649F00E94DF1F601B710B613D774023
:103A700068F381E04BC02AEA31E040E050E068E0C2
:103A8000CE010E948D1C82FF02C0FB860DC094E017
:103A9000F92E0E94031C8A87FA94D9F78A3A11F00A
:103AA00082E034C082E08B878B85823031F4C12C78
:103AB000D12CE12C80E4F82E03C0C12CD12C76014E
:103AC00020E030E0A90167E3CE010E948D1CA70130
:103AD000960169E2CE010E948D1C8A87882349F0F5
:103AE0000E94DF1F601B710B613D774048F388E047
:103AF0000DC08B85823031F520E030E0A9016AE30A
:103B0000CE010E948D1C882381F086E08D83CE013A
:103B10000E94061C80E0DF91CF911F910F91FF90D2
:103B2000EF90DF90CF90BF9008950E94031C807C9F
:103B3000803C11F483E08B870E94031C0E94031CCD
:103B40000E94031CCE010E94061C6B2DCE01DF914A
:103B5000CF911F910F91FF90EF90DF90CF90BF908A
:103B60000C94471C0F931F93CF93DF93EC010E949B
:103B7000DF1F8B010E94031C8A878F3F49F40E943C
:103B8000DF1F601B710B6D327140A0F38FE003C02B
:103B90008E3F39F08DE08D83CE010E94061C80E0BF
:103BA00001C081E0DF91CF911F910F910895CF92D5
:103BB000DF92EF92FF920F931F93CF93DF93EC016D
:103BC00069010115110509F462C0C801820F931F34
:103BD0008130924008F05DC08E81882371F0888129
:103BE0009981AA81BB81481759076A077B0729F485
:103BF0008F819885C816D90610F5488359836A8342
:103C00007B838B85833039F039E0440F551F661F65
:103C1000771F3A95D1F79A01AB0161E1CE010E947D
:103C20008D1C882319F083E08D8333C0CE010E9460
:103C3000B21D882371F118861F8281E08E838F81E7
:103C400098858C159D0540F40E94031C8F819885F2
:103C5000019698878F83F3CF6701E00EF11ECE1493
:103C6000DF0431F00E94031CF60181936F01F7CF4E
:103C70008F819885800F911F98878F8329852223B4
:103C800019F08115924018F0CE010E942D1C81E0A0
:103C900004C0CE010E94061C80E0DF91CF911F91ED
:103CA0000F91FF90EF90DF90CF900895EF92FF92E9
:103CB0000F931F93790100E012E020E030E00E94B2
:103CC000D71D1F910F91FF90EF900895CF92DF9233
:103CD000EF92FF920F931F93CF93DF9300D0CDB756
:103CE000DEB78C01862F49835A830E94FC1B4981D1
:103CF000C42E5A81D52EE12CF12CF60181916F0151
:103D00000E94FC1BFFEFEF1AFF0AE11482E0F806A5
:103D1000A1F78FEF0E94FC1B8FEF0E94FC1B0E94FB
:103D2000031CF80182878F71853039F081E185832A
:103D3000C8010E94061C80E001C081E00F900F9036
:103D4000DF91CF911F910F91FF90EF90DF90CF9077
:103D500008950F931F93CF93DF93EC0189014115D1
:103D600051056105710511F482E132C08B85833004
:103D700039F089E0440F551F661F771F8A95D1F7E8
:103D80009A01AB0168E1CE010E948D1C882311F0DD
:103D900084E01EC0A8016EEFCE010E94661E88233B
:103DA000C1F068E572E0CE010E94721C811102C070
:103DB00085E10EC020E030E0A9016DE0CE010E9457
:103DC0008D1C811104C00E94031C882339F084E1FA
:103DD0008D83CE010E94061C80E004C0CE010E94AB
:103DE000061C81E0DF91CF911F910F91089580E52E
:103DF0008093C8051092C9050895833081F028F496
:103E0000813099F08230A1F008958730A9F0883090
:103E1000B9F08430D1F4809180008F7D03C080910F
:103E200080008F7780938000089584B58F7702C0DB
:103E300084B58F7D84BD08958091B0008F7703C0D5
:103E40008091B0008F7D8093B0000895CF93DF9371
:103E500090E0FC01E252FF4F2491FC01EE50FF4F35
:103E60008491882349F190E0880F991FFC01E65E58
:103E7000FE4FA591B491805F9E4FFC01C591D491F6
:103E80009FB7611108C0F8948C91209582238C9380
:103E9000888182230AC0623051F4F8948C91322FC9
:103EA000309583238C938881822B888304C0F89477
:103EB0008C91822B8C939FBFDF91CF9108950F93AC
:103EC0001F93CF93DF931F92CDB7DEB7282F30E03B
:103ED000F901E653FF4F8491F901E252FF4F14912B
:103EE000F901EE50FF4F04910023C9F0882321F01F
:103EF00069830E94FD1E6981E02FF0E0EE0FFF1F35
:103F0000E05FFE4FA591B4919FB7F8948C91611139
:103F100003C01095812301C0812B8C939FBF0F900C
:103F2000DF91CF911F910F9108951F920F920FB6BD
:103F30000F9211242F933F938F939F93AF93BF932F
:103F40008091CB059091CC05A091CD05B091CE0587
:103F50003091CA0523E0230F2D3720F40196A11DCF
:103F6000B11D05C026E8230F0296A11DB11D2093A7
:103F7000CA058093CB059093CC05A093CD05B09353
:103F8000CE058091CF059091D005A091D105B0913B
:103F9000D2050196A11DB11D8093CF059093D00548
:103FA000A093D105B093D205BF91AF919F918F910E
:103FB0003F912F910F900FBE0F901F9018952FB724
:103FC000F8946091CB057091CC058091CD059091CE
:103FD000CE052FBF08953FB7F8948091CF059091FB
:103FE000D005A091D105B091D20526B5A89B05C0FA
:103FF0002F3F19F00196A11DB11D3FBF6627782FF5
:10400000892F9A2F620F711D811D911D42E0660F4D
:10401000771F881F991F4A95D1F70895CF92DF9295
:10402000EF92FF92CF93DF936B017C010E94EB1F15
:10403000EB01C114D104E104F10489F00E94B3241E
:104040000E94EB1F6C1B7D0B683E734090F381E078
:10405000C81AD108E108F108C851DC4FEACFDF9156
:10406000CF91FF90EF90DF90CF900895789484B532
:10407000826084BD84B5816084BD85B5826085BD64
:1040800085B5816085BDEEE6F0E08081816080834A
:10409000E1E8F0E01082808182608083808181602D
:1040A0008083E0E8F0E0808181608083E1EBF0E0F4
:1040B000808184608083E0EBF0E080818160808398
:1040C000EAE7F0E080818460808380818260808381
:1040D0008081816080838081806880831092C100AC
:1040E00008951F920F920FB60F9211242F938F9362
:1040F0009F93EF93FF93E091E305F091E4058081B6
:10410000E091E905F091EA0582FD12C0908180916D
:10411000EC058F5F8F732091ED05821751F0E091D0
:10412000EC05F0E0ED52FA4F958F8093EC0501C05D
:104130008081FF91EF919F918F912F910F900FBEF2
:104140000F901F9018951F920F920FB60F92112487
:104150002F933F934F935F936F937F938F939F938F
:10416000AF93BF93EF93FF9383ED95E00E94A92354
:10417000FF91EF91BF91AF919F918F917F916F913F
:104180005F914F913F912F910F900FBE0F901F9015
:10419000189583ED95E00E946E2321E0892B09F4A8
:1041A00020E0822F08951092D6051092D50588EE52
:1041B00093E0A0E0B0E08093D7059093D805A0935A
:1041C000D905B093DA0580E292E09093D40580930C
:1041D000D30585EC90E09093E0058093DF0584ECB7
:1041E00090E09093E2058093E10580EC90E090935D
:1041F000E4058093E30581EC90E09093E6058093DD
:10420000E50582EC90E09093E8058093E70586EC65
:1042100090E09093EA058093E9051092EC051092E6
:10422000ED051092EE051092EF05089508950E9495
:1042300036200E9416210E949201CBE9D3E20E940F
:1042400092022097E1F30E949B23F9CFFC01808129
:1042500091810C946927CF93DF93EC018881998138
:10426000009711F00E946927198218821D821C8212
:104270001B821A82DF91CF9108950F931F93CF93E2
:10428000DF93EC018B016F5F7F4F888199810E94E2
:10429000F827009731F0998388831B830A8381E094
:1042A00001C080E0DF91CF911F910F910895CF93CE
:1042B000DF93EC0188819981892B29F08A819B8188
:1042C0008617970760F4CE010E943D21882341F0B4
:1042D0008C819D81892B19F4E881F981108281E01C
:1042E000DF91CF910895EF92FF920F931F93CF9399
:1042F000DF93EC017B018A01BA010E9457218111F1
:1043000004C0CE010E942B2107C01D830C83B7017E
:10431000888199810E941329CE01DF91CF911F914D
:104320000F91FF90EF900895FC011182108213828B
:104330001282158214826115710559F0FB010190FA
:104340000020E9F7AF0141505109461B570B0C946F
:1043500073210895CF93DF93EC01FB018617970734
:1043600061F0608171816115710529F04481558189
:104370000E94732102C00E942B21CE01DF91CF91B8
:104380000895FC0111821082138212821582148218
:104390000C94AA21CF93DF93EC016115710561F0B4
:1043A000FB0101900020E9F7AF0141505109461B84
:1043B000570B0E94732102C00E942B21CE01DF9176
:1043C000CF9108950F931F93CF93DF93CDB7DEB7AF
:1043D00029970FB6F894DEBF0FBECDBF8C01862F94
:1043E000F80111821082138212821582148250E029
:1043F000BE016F5F7F4F90E00E948129BE016F5F19
:104400007F4FC8010E94CA2129960FB6F894DEBFDB
:104410000FBECDBFDF91CF911F910F9108950F93E4
:104420001F93CF93DF93CDB7DEB762970FB6F894A3
:10443000DEBF0FBECDBF8C01CB01F801118210820F
:10444000138212821582148250E0BE016F5F7F4F8B
:104450000E942929BE016F5F7F4FC8010E94CA21B7
:1044600062960FB6F894DEBF0FBECDBFDF91CF913D
:104470001F910F9108950F931F93CF93DF93CDB7A3
:10448000DEB761970FB6F894DEBF0FBECDBF8C01CB
:10449000CB01F801118210821382128215821482DC
:1044A00050E0BE016F5F7F4F0E948129BE016F5FA8
:1044B0007F4FC8010E94CA2161960FB6F894DEBFF3
:1044C0000FBECDBFDF91CF911F910F9108950F9334
:1044D0001F93CF93DF93CDB7DEB7A1970FB6F894B4
:1044E000DEBF0FBECDBF8C01CB01BA01F801118236
:1044F0001082138212821582148230E0AE014F5F67
:104500005F4F0E945429BE016F5F7F4FC8010E9418
:10451000CA21A1960FB6F894DEBF0FBECDBFDF91C2
:10452000CF911F910F910895EF92FF920F931F93D8
:10453000CF93DF93CDB7DEB7A1970FB6F894DEBF68
:104540000FBECDBF7C01CB01BA01F70111821082F1
:10455000138212821582148242E0420F8E010F5F95
:104560001F4F0E94B026BC01C7010E94CA21A1961C
:104570000FB6F894DEBF0FBECDBFDF91CF911F9174
:104580000F91FF90EF900895EF92FF920F931F937A
:10459000CF93DF93EC017B010C811D8161157105C7
:1045A00011F480E016C04115510591F0040F151F5C
:1045B000B8010E9457218823A1F3288139818C8179
:1045C0009D81B701820F931F0E9413291D830C83C5
:1045D00081E0DF91CF911F910F91FF90EF900895AF
:1045E000CF93DF93EC016115710569F0FB01019038
:1045F0000020E9F7AF0141505109461B570B0E94BB
:10460000C422811103C0CE010E942B21CE01DF9173
:10461000CF910895CF92DF92EF92FF920F931F9365
:10462000CF93DF936C017A01EB01E60EF71E00E0F9
:1046300010E0CE15DF0561F06991D601ED91FC9196
:104640000190F081E02DC6010995080F191FF1CFE7
:10465000C801DF91CF911F910F91FF90EF90DF90F4
:10466000CF9008956115710581F0DB010D90002058
:10467000E9F7AD0141505109461B570BDC01ED91A3
:10468000FC910280F381E02D099480E090E0089590
:10469000DC01ED91FC91DB0114964D915C91159735
:1046A0006D917C910280F381E02D09940C9432236A
:1046B0006DE072E00C9432230F931F93CF93DF933E
:1046C000EC010E9432238C01CE010E945823800FFE
:1046D000911FDF91CF911F910F910895FC01818D62
:1046E000228D90E0805C9F4F821B91098F739927E8
:1046F0000895FC01918D828D981731F0828DE80F1D
:10470000F11D858D90E008958FEF9FEF0895FC01D6
:10471000918D828D981761F0828DDF01A80FB11DF8
:104720005D968C91928D9F5F9F73928F90E008951C
:104730008FEF9FEF089589EC90E2892B49F080E09C
:1047400090E0892B29F00E94C92081110C9400006F
:104750000895FC01848DDF01A80FB11DA35ABF4F3E
:104760002C91848D90E001968F739927848FA68970
:10477000B7892C93A089B1898C9180648C93938D97
:10478000848D981306C00288F389E02D80818F7D87
:1047900080830895CF93DF93EC01888D8823C9F03F
:1047A000EA89FB89808185FD05C0A889B9898C913A
:1047B00086FD0FC00FB607FCF5CF808185FFF2CFD5
:1047C000A889B9898C9185FFEDCFCE010E94A923DC
:1047D000E7CFDF91CF910895CF92DF92FF920F93B1
:1047E0001F93CF93DF931F92CDB7DEB76C0181E0AB
:1047F000D60158968C9358975B969C915B975C96E4
:104800008C915C97981307C05096ED91FC9151974D
:10481000808185FD2EC0F601038D10E00F5F1F4FD4
:104820000F731127F02EF601848DF81211C00FB608
:1048300007FCF9CFD6015096ED91FC9151978081FC
:1048400085FFF1CFC60169830E94A9236981EBCF5F
:10485000838DE80FF11DE35AFF4F6083D6015B960D
:104860000C935B975296ED91FC91539780818062F7
:104870000CC0D6015696ED91FC91579760835096E7
:10488000ED91FC91519780818064808381E090E07C
:104890000F90DF91CF911F910F91FF90DF90CF90FC
:1048A0000895BF92CF92DF92EF92FF92CF93DF9362
:1048B000EC016A017B01B22EE889F98982E08083EC
:1048C000411581EE580761057105A1F060E079E0BE
:1048D0008DE390E0A70196010E9433262150310913
:1048E000410951095695479537952795211580E13E
:1048F000380798F0E889F989108260E874E88EE159
:1049000090E0A70196010E94332621503109410908
:1049100051095695479537952795EC85FD85308348
:10492000EE85FF852083188EEC89FD89B082EA89A7
:10493000FB89808180618083EA89FB89808188602E
:104940008083EA89FB89808180688083EA89FB898A
:1049500080818F7D8083DF91CF91FF90EF90DF90FA
:10496000CF90BF90089508955058BB27AA270ED026
:104970001CC10DD130F012D120F031F49F3F11F461
:104980001EF402C10EF4E095E7FBF8C0E92F1ED13A
:1049900080F3BA17620773078407950718F071F45C
:1049A0009EF536C10EF4E0950B2EBA2FA02D0B010B
:1049B000B90190010C01CA01A0011124FF27591B64
:1049C00099F0593F50F4503E68F11A16F040A22F6A
:1049D000232F342F4427585FF3CF469537952795DB
:1049E000A795F0405395C9F77EF41F16BA0B620BDA
:1049F000730B840BBAF09150A1F0FF0FBB1F661F21
:104A0000771F881FC2F70EC0BA0F621F731F841F63
:104A100048F4879577956795B795F7959E3F08F089
:104A2000B3CF9395880F08F09927EE0F9795879548
:104A300008950CD0BAC0B2D040F0A9D030F021F423
:104A40005F3F19F09BC05111E4C09EC0BFD098F3E6
:104A50009923C9F35523B1F3951B550BBB27AA27FF
:104A600062177307840738F09F5F5F4F220F331F71
:104A7000441FAA1FA9F333D00E2E3AF0E0E830D03D
:104A800091505040E695001CCAF729D0FE2F27D040
:104A9000660F771F881FBB1F261737074807AB070E
:104AA000B0E809F0BB0B802DBF01FF2793585F4F83
:104AB0002AF09E3F510568F061C0ABC05F3FECF348
:104AC000983EDCF3869577956795B795F7959F5F48
:104AD000C9F7880F911D9695879597F90895E1E09C
:104AE000660F771F881FBB1F621773078407BA07FB
:104AF00020F0621B730B840BBA0BEE1F88F7E09556
:104B00000895E89409C097FB3EF4909580957095C0
:104B100061957F4F8F4F9F4F9923A9F0F92F96E909
:104B2000BB279395F695879577956795B795F1117E
:104B3000F8CFFAF4BB0F11F460FF1BC06F5F7F4F1B
:104B40008F4F9F4F16C0882311F096E911C077232D
:104B500021F09EE8872F762F05C0662371F096E836
:104B6000862F70E060E02AF09A95660F771F881F05
:104B7000DAF7880F9695879597F9089597F99F67C3
:104B800080E870E060E008959FEF80EC08950024D5
:104B90000A941616170618060906089500240A94A2
:104BA00012161306140605060895092E0394000C28
:104BB00011F4882352F0BB0F40F4BF2B11F460FFB7
:104BC00004C06F5F7F4F8F4F9F4F089557FD9058E0
:104BD000440F551F59F05F3F71F04795880F97FBC1
:104BE000991F61F09F3F79F087950895121613067B
:104BF0001406551FF2CF4695F1DF08C016161706AA
:104C00001806991FF1CF86957105610508940895DE
:104C1000E894BB2766277727CB0197F90895DB0136
:104C20008F939F930E947A26BF91AF91A29F800D90
:104C3000911DA39F900DB29F900D1124089597FB95
:104C4000072E16F4009407D077FD09D00E948D2618
:104C500007FC05D03EF4909581959F4F089570957F
:104C600061957F4F0895A1E21A2EAA1BBB1BFD017F
:104C70000DC0AA1FBB1FEE1FFF1FA217B307E4073B
:104C8000F50720F0A21BB30BE40BF50B661F771F93
:104C9000881F991F1A9469F7609570958095909573
:104CA0009B01AC01BD01CF010895052E97FB1EF4B9
:104CB00000940E946C2657FD07D00E94332607FC03
:104CC00003D04EF40C946C26509540953095219568
:104CD0003F4F4F4F5F4F0895909580957095619528
:104CE0007F4F8F4F9F4F0895EE0FFF1F0590F49158
:104CF000E02D09940E94A126A59F900DB49F900DD0
:104D0000A49F800D911D11240895B7FF0C947A265D
:104D10000E947A26821B930B0895AA1BBB1B51E1AC
:104D200007C0AA1FBB1FA617B70710F0A61BB70B1B
:104D3000881F991F5A95A9F780959095BC01CD01C0
:104D40000895A29FB001B39FC001A39F700D811D64
:104D50001124911DB29F700D811D1124911D089584
:104D6000EF920F931F93CF93DF93E80147FF02C0A9
:104D700034E101C034E0E42FFF27E7FDF095F7FFB1
:104D800003C0F195E195F109E32E022F2E2FAE011C
:104D90000E94B02BCE01DF91CF911F910F91EF9028
:104DA0000895CF93DF938230910510F482E090E074
:104DB000E0917206F091730620E030E0A0E0B0E0F0
:104DC000309739F14081518148175907B8F0481799
:104DD000590771F482819381109729F013969C935F
:104DE0008E9312972CC0909373068093720627C0FF
:104DF0002115310531F04217530718F0A901DB01E5
:104E000001C0EF019A01BD01DF010280F381E02DB5
:104E1000D7CF21153105F9F0281B390B2430310586
:104E200080F48A819B816115710521F0FB019383D8
:104E3000828304C09093730680937206FE013296BB
:104E400044C0FE01E20FF31F819391932250310978
:104E5000398328833AC02091700630917106232B44
:104E600041F42091020130910301309371062093A7
:104E7000700620910001309101012115310541F4A6
:104E80002DB73EB74091040150910501241B350B0D
:104E9000E0917006F0917106E217F307A0F42E1B63
:104EA0003F0B2817390778F0AC014E5F5F4F24178E
:104EB000350748F04E0F5F1F509371064093700600
:104EC0008193919302C0E0E0F0E0CF01DF91CF91B8
:104ED0000895CF93DF93009709F487C0FC013297C0
:104EE00013821282C0917206D0917306209781F4CA
:104EF00020813181280F391F8091700690917106B1
:104F00008217930779F5F0937106E09370066DC0F0
:104F1000DE0120E030E0AE17BF0750F412964D914D
:104F20005C9113979D014115510509F1DA01F3CF09
:104F3000B383A28340815181840F951F8A179B07F9
:104F400071F48D919C911197840F951F0296918316
:104F5000808312968D919C91139793838283211560
:104F6000310529F4F0937306E09372063EC0D9012F
:104F70001396FC93EE9312974D915D91A40FB51F7C
:104F8000EA17FB0779F480819181840F951F0296BF
:104F9000D90111969C938E938281938113969C9351
:104FA0008E931297E0E0F0E08A819B81009719F0E0
:104FB000FE01EC01F9CFCE01029628813981820FE2
:104FC000931F20917006309171062817390769F4F4
:104FD000309729F4109273061092720602C0138261
:104FE0001282D0937106C0937006DF91CF9108951D
:104FF000A0E0B0E0EEEFF7E20C94C02EEC01CB01A4
:10500000209719F40E94D126B8C0FE01E60FF71FC1
:105010009E0122503109E217F30708F4ACC0D90110
:105020000D911C91119706171707B8F0053011055F
:1050300008F49FC0A801445051094617570708F4C7
:1050400098C002501109061B170B019311936D9321
:105050007C93CF010E9469278CC05B01A01AB10A22
:105060004E01800E911EA0917206B0917306612CC4
:10507000712C60E070E0109709F449C0A815B905DB
:10508000C9F5ED90FC901197670142E0C40ED11C68
:10509000CA14DB0478F147018A189B08640142E0D6
:1050A000C40ED11C1296BC9012971396AC91B5E029
:1050B000CB16D10440F0B282A38391828082D901C1
:1050C0008D939C9309C00E5F1F4F0E0D1F1DF9019C
:1050D00011830083EB2DFA2F6115710531F0DB018F
:1050E0001396FC93EE93129744C0F0937306E093EB
:1050F00072063FC06D917C9111976616770608F491
:105100003B01BD0112960D90BC91A02DB4CF6091D2
:1051100070067091710668157905E9F468167906CC
:10512000D0F440910001509101014115510541F425
:105130004DB75EB76091040170910501461B570B96
:10514000E417F507C0F4F0937106E0937006F901D7
:10515000918380830EC00E94D1267C01009759F074
:10516000A801BE010E94F628CE010E946927C7014E
:1051700004C0CE0102C080E090E0CDB7DEB7EEE023
:105180000C94DC2E1F93FC0199278827BC01E8941E
:1051900011911032E9F3193010F01E30C8F31B32B0
:1051A00051F01D3249F4689406C00E943F29610FF6
:1051B000711D811D911D119110531A30B0F33EF4F1
:1051C00090958095709561957F4F8F4F9F4F1F9160
:1051D0000895FB01DC0104C08D910190801921F438
:1051E00041505040C8F7881B990B0895FB01DC0122
:1051F00002C001900D9241505040D8F70895FC0133
:105200008191861721F08823D9F79927089531973E
:10521000CF010895FB01DC018D91019080190110EF
:10522000D9F3990B0895FB01DC0101900D92002048
:10523000E1F70895FB01DC014150504048F0019036
:105240000D920020C9F701C01D9241505040E0F777
:1052500008954532510520F4423010F00C94342961
:10526000FB011082CB010895BB274A3031F499230A
:1052700022F4BDE2909581959F4F0C948D29592F72
:10528000482F372F262F660F771F881F991F660F0D
:10529000771F881F991F620F731F841F951F660F4A
:1052A000771F881F991F08952532310520F4223079
:1052B00010F00C945F29FA011082CA010895BB27EF
:1052C000FA01A62F6217710581059105330B30FB9A
:1052D00066F0AA27660F771F881F991FAA1FA217BB
:1052E00010F0A21B63953850A9F7A05DAA3308F00F
:1052F000A95DA19336F7B111B1931082CA010C9444
:105300001C2E4532510520F4423010F00C948C29AB
:10531000FB011082CB010895BB27FB015527AA276B
:10532000880F991FAA1FA41710F0A41B8395505132
:10533000B9F7A05DAA3308F0A95DA193009779F7AA
:10534000B111B1931192CB010C941C2EAEE0B0E0E0
:10535000ECEAF9E20C94CA2E0D891E8986E08C8352
:105360001A8309838FEF9FE79E838D83AE01475E8B
:105370005F4F6F89788DCE0101960E94C829EF8119
:10538000F885E00FF11F10822E96E4E00C94E62ED3
:10539000ACE0B0E0EEECF9E20C94BC2E7C016B01C9
:1053A0008A01FC0117821682838181FFBDC1CE0173
:1053B00001964C01F7019381F60193FD859193FFCE
:1053C00081916F01882309F4ABC1853239F493FDD3
:1053D000859193FF81916F01853229F4B70190E0A7
:1053E0000E942C2EE7CF512C312C20E02032A0F44B
:1053F0008B3269F030F4803259F0833269F42061E5
:105400002CC08D3239F0803339F4216026C02260FF
:10541000246023C0286021C027FD27C030ED380F4D
:105420003A3078F426FF06C0FAE05F9E300D112472
:10543000532E13C08AE0389E300D1124332E206283
:105440000CC08E3221F426FD6BC1206406C08C3660
:1054500011F4206802C0883641F4F60193FD85916D
:1054600093FF81916F018111C1CF982F9F7D95543A
:10547000933028F40C5F1F4FFFE3F9830DC0833690
:1054800031F0833771F0833509F05BC022C0F80139
:10549000808189830E5F1F4F44244394512C540113
:1054A00015C03801F2E06F0E711CF801A080B180C8
:1054B00026FF03C0652D70E002C06FEF7FEFC501CE
:1054C0002C870E94112E2C0183012C852F77222EF0
:1054D00017C03801F2E06F0E711CF801A080B18096
:1054E00026FF03C0652D70E002C06FEF7FEFC5019E
:1054F0002C870E94062E2C012C852068222E8301E9
:1055000023FC1BC0832D90E048165906B0F4B70168
:1055100080E290E00E942C2E3A94F4CFF50127FC13
:10552000859127FE81915F01B70190E00E942C2EAA
:1055300031103A94F1E04F1A51084114510471F7B7
:10554000E5C0843611F0893639F5F80127FF07C028
:1055500060817181828193810C5F1F4F08C06081DF
:105560007181882777FD8095982F0E5F1F4F2F76CA
:10557000B22E97FF09C090958095709561957F4FE9
:105580008F4F9F4F2068B22E2AE030E0A4010E9486
:105590005E2EA82EA81844C0853729F42F7EB22E7F
:1055A0002AE030E025C0F22FF97FBF2E8F36C1F000
:1055B00018F4883579F0B4C0803719F0883721F0B5
:1055C000AFC02F2F2061B22EB4FE0DC08B2D846092
:1055D000B82E09C024FF0AC09F2F9660B92E06C0BE
:1055E00028E030E005C020E130E002C020E132E0F8
:1055F000F801B7FE07C060817181828193810C5FE1
:105600001F4F06C06081718180E090E00E5F1F4FE8
:10561000A4010E945E2EA82EA818FB2DFF77BF2E96
:10562000B6FE0BC02B2D2E7FA51450F4B4FE0AC07D
:10563000B2FC08C02B2D2E7E05C07A2C2B2D03C06A
:105640007A2C01C0752C24FF0DC0FE01EA0DF11D5E
:105650008081803311F4297E09C022FF06C0739433
:10566000739404C0822F867809F0739423FD13C0CD
:1056700020FF06C05A2C731418F4530C5718732CBF
:10568000731468F4B70180E290E02C870E942C2EFE
:1056900073942C85F5CF731410F4371801C0312C96
:1056A00024FF12C0B70180E390E02C870E942C2ECB
:1056B0002C8522FF17C021FF03C088E590E002C0BF
:1056C00088E790E0B7010CC0822F867859F021FD61
:1056D00002C080E201C08BE227FD8DE2B70190E0BD
:1056E0000E942C2EA51438F4B70180E390E00E94AC
:1056F0002C2E5A94F7CFAA94F401EA0DF11D808163
:10570000B70190E00E942C2EA110F5CF332009F4B0
:1057100051CEB70180E290E00E942C2E3A94F6CF51
:10572000F7018681978102C08FEF9FEF2C96E2E10F
:105730000C94D82EF999FECF92BD81BDF89A992785
:1057400080B50895262FF999FECF1FBA92BD81BD6D
:1057500020BD0FB6F894FA9AF99A0FBE01960895F3
:105760006F927F929F92AF92BF92CF92DF92EF9211
:10577000FF920F931F93CF93DF93CDB7DEB7299797
:105780000FB6F894DEBF0FBECDBF6A01B22E102F48
:105790000C3320F4FF24F394F00E02C04CE3F42EFB
:1057A0000F2D27E0AE014F5F5F4F0E942E2D7981B4
:1057B000272F2970213031F0E1FC06C0E0FC06C043
:1057C00060E005C06DE203C06BE201C060E2AE2D97
:1057D000A07173FF36C0662311F084E001C083E03E
:1057E0008B1510F4B81A01C0B12CA1110BC0F60131
:1057F0008B2D90E2882319F091938150FBCFCB0C35
:10580000D11CB12C662331F0F601608396012F5F25
:105810003F4F6901C6010396E2FE05C02EE4F60182
:10582000208331E404C02EE6F601208331E6318383
:105830002283FC012B2D30E22223F1F13193215000
:10584000FBCF72FF40C0662311F084E001C083E00B
:105850008B1510F4B81A01C0B12CA1110BC0F601C0
:105860008B2D90E2882319F091938150FBCFCB0CC4
:10587000D11CB12C662331F0F601608396012F5FB5
:105880003F4F6901C6010396E2FE07C029E4F60115
:1058900020832EE4218326E406C029E6F601208336
:1058A0002EE6218326E62283FC012B2D30E22223E3
:1058B00019F031932150FBCFFC01EB0DF11D10824B
:1058C0008EEF9FEFB7C0B1E0611101C0B0E04B2F88
:1058D00050E01816190624F49C012F5F3F4F02C0B8
:1058E00021E030E0240F351F112329F0412F50E033
:1058F0004F5F5F4F02C040E050E0420F531F2B2D1F
:1059000030E04217530714F4B41A01C0B12C2E2D05
:10591000287159F4F6012B2D30E2222319F031932E
:105920002150FBCFCB0CD11CB12CBB2331F0F601A5
:10593000608396012F5F3F4F6901A1110BC0F601F3
:105940002B2D30E3222319F031932150FBCFCB0CC8
:10595000D11CB12CF80E0A81372F3071A32E74FFA1
:1059600003C0013309F4FA941F142CF42F2D2930AD
:1059700018F028E001C021E0682F392F97FF02C0FE
:1059800060E030E0462F532F612C712C3EE2932EC5
:10599000BC01621B71099B01DC01A41BB50BE1E09A
:1059A000F0E0EC0FFD1FAE0FBF1FE12EF12CF194C4
:1059B000E194F1084F3FFFEF5F0731F4F601908269
:1059C000B6016F5F7F4F6B01841795074CF024176A
:1059D000350734F4BD01660D771DFB01118101C04F
:1059E00010E341505109FFEF6F1A7F0AB6016F5F54
:1059F0007F4F4E155F0524F0F60110836B01DACF5F
:105A00004817590739F4063320F4053319F4A11067
:105A100001C011E3F6011083FB018B2D90E2882376
:105A200019F091938150FBCFFB01EB0DF11D10821A
:105A300080E090E029960FB6F894DEBF0FBECDBF90
:105A4000DF91CF911F910F91FF90EF90DF90CF905A
:105A5000BF90AF909F907F906F900895283008F08E
:105A600027E03327DA01990F311D87FD91600096F9
:105A70006105710539F432602E5F3D9330E32A955C
:105A8000E1F708959F3F30F080387105610509F016
:105A90003C5F3C5F3D93913008F08068911DDF933F
:105AA000CF931F930F93FF92EF92192F987F9695A4
:105AB000E92F96959695E90FFF27E258FE4F992713
:105AC0003327EE24FF24A701E701059008940794EB
:105AD00028F4360FE71EF81E491F511D660F771F69
